:020000040800F2
:10000000300400204501000815050008CB04000855
:1000100011050008C5010008A10A00080000000041
:10002000000000000000000000000000ED060008D5
:10003000C901000800000000F50500082D080008AF
:100040005F0100085F0100085F0100085F01000810
:100050005F0100085F010008F50100085F0100086A
:100060005F0100085F0100085F0100085F010008F0
:100070005F0100085F0100085F0100085F010008E0
:100080005F0100085F0100085F0100085F010008D0
:100090005F0100085F0100085F0100085F010008C0
:1000A0005F0100085F0100085F0100085F010008B0
:1000B0005F0100085F0100085F0100085F010008A0
:1000C0005F0100085F0100085F0100085F01000890
:1000D0005F0100085F0100085F0100085F01000880
:1000E000070200085F0100085F0100085F010008C7
:1000F0005F0100085F0100085F0100085F01000860
:100100005F0100085F0100085F0100085F0100084F
:100110005F0100085F0100085F0100085F0100083F
:100120005F0100085F0100085F0100085F0100082F
:10013000DFF80CD000F018F800480047190B000851
:10014000300400200648804706480047FEE7FEE7E7
:10015000FEE7FEE7FEE7FEE7FEE7FEE7FEE7FEE777
:100160005508000831010008064C074D06E0E0681C
:1001700040F0010394E8070098471034AC42F6D3EE
:10018000FFF7DAFF500B0008700B000808B50121DB
:10019000042000F031FA4FF48070ADF80000102018
:1001A0008DF8030003208DF802006946044800F032
:1001B000FFF84FF48071024800F085F908BD000097
:1001C0000008014000BFFEE77047000001B5084984
:1001D000009808604FF0E020006940F001004FF007
:1001E000E021086100BF024800680028FBD108BD7B
:1001F0002800002010B5012000F016F810B10120F1
:1002000000F00CF810BD10B54FF4005000F00CF8E1
:1002100018B14FF4005000F001F810BD014908601A
:100220007047000014040140014600200022074BE3
:100230001B6803EA0102054B14331B680B4013B122
:100240000AB1012000E000207047000000040140D6
:10025000002123498279002A3AD00A4612680368AD
:100260009A430B461A600A1D126803689A430B1DD5
:100270001A60027911440A6803681A430A60184A2E
:100280000832126803689A43154B08331A601A1D26
:10029000126803689A43124B0C331A604279102A91
:1002A0000ED11A1F126803681A430D4B08331A60E7
:1002B0001A1D126803681A43094B0C331A600DE0CB
:1002C0000749427911440A6803681A430A6005E045
:1002D000027911440A6803689A430A607047000073
:1002E000000401400EB50121052000F085F900F061
:1002F00012F90120ADF8080004208DF80B0002A9C6
:10030000194800F055F80021084600F031F80120A6
:10031000009000208DF8040008208DF805000120D1
:100320008DF806006846FFF793FF4FF40050ADF8D4
:10033000080004208DF80B0002A90C4800F038F8E2
:100340000D21022000F014F84FF40050009000201E
:100350008DF804000C208DF8050001208DF80600B2
:100360006846FFF775FF0EBD000801400010014010
:1003700030B500228B071C0F0F2303FA04F20B4B3E
:100380008C1053F824309343084C8D1044F82530DA
:1003900023468C1053F824308C07240F00FA04F401
:1003A0002343024C8D1044F8253030BD0800014035
:1003B0002DE9F041024600250026002000230024FC
:1003C000002791F803C00CF00F0591F803C00CF062
:1003D000100CBCF1000F03D091F802C04CEA0505E7
:1003E00091F800C0BCF1000F31D0146800202BE060
:1003F0004FF0010C0CFA00F3B1F800C00CEA030650
:100400009E4220D183004FF00F0C0CFA03F7BC433F
:1004100005FA03FC4CEA040491F803C0BCF1280F70
:1004200006D14FF0010C0CFA00FCC2F814C00AE02F
:1004300091F803C0BCF1480F05D14FF0010C0CFA44
:1004400000FCC2F810C0401C0828D1D31460B1F8D9
:1004500000C0BCF1FF0F34DD546800202EE000F135
:10046000080C4FF0010808FA0CF3B1F800C00CEAD0
:1004700003069E4221D183004FF00F0C0CFA03F7C4
:10048000BC4305FA03FC4CEA040491F803C0BCF138
:10049000280F05D100F1080C08FA0CF8C2F81480F6
:1004A00091F803C0BCF1480F07D100F1080C4FF0E0
:1004B000010808FA0CF8C2F81080401C0828CED3B6
:1004C0005460BDE8F0814161704700BFFEE7000065
:1004D00008B50121142000F08FF80120ADF80000CC
:1004E00004208DF8030069460748FFF761FF4FF4C9
:1004F0000050ADF8000004208DF803006946034861
:10050000FFF756FF08BD0000000801400010014041
:1005100000BFFEE7704708B54FF4C06000F060F818
:1005200006208DF8000001208DF801008DF80200F2
:100530008DF80300684600F01BF828208DF80000B5
:10054000684600F015F808BD08B54FF4A06000F04B
:1005500047F825208DF8000001208DF801008DF866
:1005600002008DF80300684600F002F808BD0000A4
:1005700070B5002100230F22C47804B3154C246801
:1005800004F4E064C4F5E064210AC1F10403CA4044
:10059000447804FA03F184781440214309010E4C95
:1005A0000678A155047804F01F050124AC400578B5
:1005B0006D11AD0005F1E025C5F8004109E00478B2
:1005C00004F01F050124AC40044D0678761145F86F
:1005D000264070BD0CED00E000E400E080E100E0AA
:1005E00002490143024A1160704700000000FA0509
:1005F0000CED00E07047000029B1064A9269024301
:10060000044B9A6104E0034A92698243014B9A6168
:10061000704700000010024030B500210022002485
:1006200000232D4D6D6805F00C0121B1042905D082
:10063000082923D105E0294D056022E0274D0560FA
:100640001FE0254D6D6805F47012234D6D6805F4AB
:100650008034022505EB92421CB9214D55430560BB
:100660000BE01D4D6D6805F400351DB11C4D554363
:10067000056002E0194D5543056002E0174D056025
:1006800000BF00BF144D6D6805F0F0010909154D5C
:100690006B5C0568DD4045600F4D6D6805F4E061F9
:1006A000090A104D6B5C4568DD4085600A4D6D6838
:1006B00005F46051C90A0B4D6B5C4568DD40C560AF
:1006C000054D6D6805F44041890B074D6B5CC568AD
:1006D000B5FBF3F5056130BD0010024000127A0051
:1006E00000093D001400002024000020704710B5D0
:1006F00000F002F810BD00000CB500200190009041
:100700003348006840F480303149086000BF304809
:10071000006800F4003000900198401C019000989F
:1007200018B90198B0F5A06FF1D12948006800F41C
:10073000003010B10120009001E0002000900098EE
:10074000012843D12348006840F010002149086087
:100750000846006820F0030008600846006840F082
:10076000020008601A484068194948600846406815
:1007700048600846406840F4806048600846406829
:1007800020F47C1048600846406840F4E810486057
:100790000846006840F08070086000BF0C480068A0
:1007A00000F000700028F9D00948406820F00300EC
:1007B000074948600846406840F00200486000BFB2
:1007C0000348406800F00C000828F9D10CBD000077
:1007D000001002400020024030B50146B1F1807F98
:1007E00001D3012030BD21F07F40401E4FF0E022B8
:1007F000506150170F22002807DA13071D0E094B0E
:1008000000F00F04241F1D5503E013071C0E064BB8
:100810001C5400BF00204FF0E022906107201061BF
:100820000020DFE718ED00E000E400E07047000082
:1008300010B5064800680649B0FBF1F42046FFF702
:10084000CBFF08B100BFFEE710BD00000000002094
:10085000A086010010B51348006840F0010011495E
:10086000086008464068104908400E49486008463C
:1008700000680E4908400B4908600846006820F4EB
:10088000802008600846406820F4FE0048604FF46D
:100890001F008860FFF72BFF4FF0006004490860DD
:1008A00010BD0000001002400000FFF8FFFFF6FE40
:1008B00008ED00E021B1828942F40052828104E017
:1008C00082894DF6FF731A408281704700B585B06A
:1008D00001210420FFF790FE01218803FFF78CFE21
:1008E0004FF40070ADF8100018208DF813000320AD
:1008F0008DF8120004A91748FFF75AFD4FF48060E5
:10090000ADF8100004208DF8130004A91148FFF77A
:100910004FFD4FF4E13000900020ADF80400ADF839
:100920000600ADF80800ADF80C000C20ADF80A0088
:100930006946094800F044F8FFF706FE012240F23C
:100940002551054800F017F801210348FFF7B2FFD1
:1009500005B000BD000801400038014002460020FB
:10096000B1F5007F00D100BF13880B400BB101200F
:1009700000E000207047F0B5034600240026002563
:10098000002040F66A17B94200D100BF1846C1F3F3
:10099000421401F01F06012707FA06F5012C01D1C8
:1009A0000C3004E0022C01D1103000E014301AB1F8
:1009B00007682F43076002E00768AF430760F0BD98
:1009C0002DE9F04786B005460E460024A24600BF3A
:1009D000A1460027B08900B100BF2F462C8A4CF6F3
:1009E000FF700440F08804432C82AC894EF6F3106B
:1009F0000440B08831890843718908430443AC81BD
:100A0000AC8A4FF6FF400440B0890443AC8201A891
:100A1000FFF702FE1F48874202D1DDF810A001E077
:100A2000DDF80CA0A88900F4004040B10AEBCA0030
:100A300000EB0A1031684900B0FBF1F807E00AEB5F
:100A4000CA0000EB0A1031688900B0FBF1F864209D
:100A5000B8FBF0F004012009642101FB1089A8898A
:100A600000F4004040B1322000EBC900B0FBF1F0CF
:100A700000F00700044308E0322000EB0910642175
:100A8000B0FBF1F000F00F0004432C8106B0BDE88C
:100A9000F087000000380140C1F3080282807047EF
:100AA00000BFFEE7014A024900F013B8F50A00084A
:100AB0002C00002002E008C8121F08C1002AFAD149
:100AC00070477047002001E001C1121F002AFBD1CE
:100AD00070472DE9F04116460F460446002503E015
:100AE0003946B047641C6D1C20780028F8D1284690
:100AF000BDE8F08170B504460D46E1B20548FFF748
:100B0000CBFF00BF80210348FFF728FF0028F9D062
:100B1000204670BD00380140FFF738FBFFF7E2FBCD
:100B2000FFF7D6FCFFF784FEFFF7D0FE05E003A039
:100B3000FFF7B8FF0548FFF749FBF8E768656C6CFD
:100B40006F20776F726C64210A000000A08601009C
:100B5000700B00080000002030000000B40A0008FC
:100B6000A00B00083000002000040000C40A0008A8
:100B700000A24A040000000000000000010203047B
:100B80000607080900000000010203040102030433
:100B90000607080902040608000000000000000023
:0400000508000145A9
:00000001FF
