:020000040800F2
:100000003804002045010008C50A00087B0A0008E2
:10001000C10A000829050008AD1100080000000011
:10002000000000000000000000000000F50C0008C7
:10003000CD06000800000000A50B0008350E0008E2
:100040005F0100085F0100085F0100085F01000810
:100050005F0100085F010008CF0600085F0100088B
:100060005F0100085F0100085F0100085F010008F0
:100070005F0100085F0100085F0100085F010008E0
:100080005F0100085F0100085F0100085F010008D0
:100090005F0100085F0100085F0100085F010008C0
:1000A0005F0100085F0100085F0100085F010008B0
:1000B0005F0100085F0100085F0100085F010008A0
:1000C0005F0100085F0100085F0100085F01000890
:1000D0005F0100085F0100085F0100085F01000880
:1000E000E10600085F0100085F0100085F010008E9
:1000F0005F0100085F0100085F0100085F01000860
:100100005F0100085F0100085F0100085F0100084F
:100110005F0100085F010008BD0E00085F010008D4
:100120005F0100085F0100085F0100085F0100082F
:10013000DFF80CD000F018F800480047CF11000895
:10014000380400200648804706480047FEE7FEE7DF
:10015000FEE7FEE7FEE7FEE7FEE7FEE7FEE7FEE777
:100160005D0E000831010008064C074D06E0E0680E
:1001700040F0010394E8070098471034AC42F6D3EE
:10018000FFF7DAFFF41100081412000821B18268A9
:1001900042F00102826003E0826822F00102826084
:1001A000704721B1826842F48072826003E0826805
:1001B00022F4807282607047014600208A6802F053
:1001C00004020AB1012000E000207047014600202F
:1001D0008A6802F008020AB1012000E0002070479E
:1001E00030B502460020002350680F4C20400D79A6
:1001F0000C6844EA05242043506090680B4C204072
:10020000D1E902542C434D7944EA450420439060DF
:10021000D06A20F470000C7C641EE4B2234340EAF0
:100220000350D06230BD0000FFFEF0FFFDF7F1FF8C
:10023000F0B504460D4600200021092D11DDE068CF
:10024000A5F10A0606EB4607072606FA07F18843DA
:10025000A5F10A0606EB460603FA06F10843E0603C
:100260000CE0206905EB4507072606FA07F18843ED
:1002700005EB450603FA06F108432061072A0FDA69
:10028000606B561E06EB86071F2606FA07F18843A9
:10029000561E06EB860605FA06F10843606322E067
:1002A0000D2A0FDA206BD61F06EB86071F2606FAEB
:1002B00007F18843D61F06EB860605FA06F10843C8
:1002C000206310E0E06AA2F10D0606EB86071F2608
:1002D00006FA07F18843A2F10D0606EB860605FA39
:1002E00006F10843E062F0BD816841F008018160D9
:1002F000704721B1826842F4A002826003E0826804
:1003000022F4A00282607047816841F0040181609C
:100310007047000008B50121102000F071FC3F205B
:10032000ADF8000000208DF803006946014800F098
:1003300017FB08BD0010014010B5FFF7EBFF00F000
:1003400001F810BD00B591B00121084600F038FC5D
:100350000121480200F054FC444800F0F3F84448FE
:10036000069044480790002008900620099000203D
:100370000A9080200B9040000C9080000D9020206F
:100380000E9000020F900020109006A9374800F050
:100390007FF90121354800F0C9F8002001900120C3
:1003A0008DF808008DF809004FF4602003900020BC
:1003B000049006208DF8140001A92D484C38FFF751
:1003C0000FFF4FF4404000F0EFFB052301220A210C
:1003D00027484C38FFF72CFF052302220B21244825
:1003E0004C38FFF725FF052303220C2120484C3809
:1003F000FFF71EFF052304220D211D484C38FFF78F
:1004000017FF05231A460E2119484C38FFF710FF35
:10041000052306220F2116484C38FFF709FF01215A
:1004200013484C38FFF7BDFE012111484C38FFF747
:10043000ADFE0F484C38FFF757FF00BF0C484C3853
:10044000FFF7C4FE0028F9D109484C38FFF75CFFDC
:1004500000BF07484C38FFF7AFFE0028F9D1012153
:1004600003484C38FFF745FF11B000BD08000240BB
:100470004C2401402C00002010B500F023F800F0BF
:1004800001F810BD0EB50121102000F0A9FB40F2CB
:10049000E730ADF804004720ADF800006946084891
:1004A00000F04CFD0121064800F01CFD0122114620
:1004B000034800F03AFD0121014800F019FD0EBD8E
:1004C0000010004008B54FF4E06000F061FB3620FA
:1004D0008DF8000000208DF8010003208DF8020047
:1004E00001208DF80300684600F01AFB08BD0000EB
:1004F00008B50121042000F083FB4FF48070ADF8B3
:10050000000010208DF8030003208DF802006946DA
:10051000044800F025FA4FF48071024800F0ABFA6D
:1005200008BD00000008014000BFFEE721B10268DD
:1005300042F00102026004E002684FF6FE731A40C6
:100540000260704701684FF6FE72114001600021A1
:10055000016041608160C1604B49884208D14A49CD
:100560000839496841F00F01474A083A51608AE06A
:1005700045491431884208D143490839496841F056
:10058000F001414A083A51607DE03F4928318842F4
:1005900008D13D490839496841F470613A4A083A3E
:1005A000516070E038493C31884208D136490839F9
:1005B000496841F47041344A083A516063E0324975
:1005C0005031884208D130490839496841F47021D6
:1005D0002D4A083A516056E02B496431884208D1CF
:1005E00029490839496841F47001274A083A51609D
:1005F00049E025497831884208D1234908394968BA
:1006000041F07061204A083A51603CE01F4988423D
:1006100006D1011F096841F00F01021F116032E08D
:100620001A491431884208D11849091F096841F054
:10063000F001164A121F116025E014492831884242
:1006400008D11249091F096841F470610F4A121F4D
:10065000116018E00D493C31884208D10B49091F4F
:10066000096841F47041094A121F11600BE0074903
:100670005031884207D10549091F096841F47021AA
:10068000024A121F1160704708000240080402402D
:1006900010B50022026847F6F0739A430C6A8B6823
:1006A00023430C6923434C6923438C692343CC695E
:1006B00023434C6A23438C6A23431A430260CB686A
:1006C00043600B6883604B68C36010BD704710B512
:1006D000012000F017F810B1012000F00DF810BD56
:1006E00010B54FF4005000F00DF818B14FF4005061
:1006F00000F002F810BD00000149086070470000DA
:1007000014040140014600200022074B1B6803EA45
:100710000102054B14331B680B4013B10AB10120D1
:1007200000E0002070470000000401400021234940
:100730008279002A3AD00A46126803689A430B4627
:100740001A600A1D126803689A430B1D1A60027929
:1007500011440A6803681A430A60184A083212688A
:1007600003689A43154B08331A601A1D1268036810
:100770009A43124B0C331A604279102A0ED11A1F79
:10078000126803681A430D4B08331A601A1D126869
:1007900003681A43094B0C331A600DE0074942798C
:1007A00011440A6803681A430A6005E0027911449B
:1007B0000A6803689A430A60704700000004014019
:1007C0000EB50121052000F01BFA00F07CF9012094
:1007D000ADF8080004208DF80B0002A9194800F0BC
:1007E000BFF80021084600F09BF80120009000208F
:1007F0008DF8040008208DF8050001208DF8060012
:100800006846FFF793FF4FF40050ADF8080004204E
:100810008DF80B0002A90C4800F0A2F80D2102206F
:1008200000F07EF84FF40050009000208DF8040096
:100830000C208DF8050001208DF806006846FFF7B2
:1008400075FF0EBD000801400010014008B50121F0
:10085000042000F0D5F94020ADF8000018208DF8F4
:10086000030003208DF8020069461B4800F078F869
:100870000121042000F0C4F98020ADF80000182008
:100880008DF8030003208DF802006946124800F03D
:1008900067F80121082000F0B3F90120ADF800004D
:1008A00018208DF8030003208DF8020069460B48DC
:1008B00000F056F80121082000F0A2F90220ADF85E
:1008C000000018208DF8030003208DF8020069460F
:1008D000024800F045F808BD00080140000C014046
:1008E00010B5FFF7B3FF00F001F810BD0EB5012100
:1008F000022000F075F90920ADF804004720ADF89A
:1009000000000020ADF80600ADF802008DF80800E8
:100910006946024800F012FB0EBD000000040040D2
:1009200030B500228B071C0F0F2303FA04F20B4B88
:100930008C1053F824309343084C8D1044F8253024
:1009400023468C1053F824308C07240F00FA04F44B
:100950002343024C8D1044F8253030BD080001407F
:100960002DE9F04102460025002600200023002446
:10097000002791F803C00CF00F0591F803C00CF0AC
:10098000100CBCF1000F03D091F802C04CEA050531
:1009900091F800C0BCF1000F31D0146800202BE0AA
:1009A0004FF0010C0CFA00F3B1F800C00CEA03069A
:1009B0009E4220D183004FF00F0C0CFA03F7BC438A
:1009C00005FA03FC4CEA040491F803C0BCF1280FBB
:1009D00006D14FF0010C0CFA00FCC2F814C00AE07A
:1009E00091F803C0BCF1480F05D14FF0010C0CFA8F
:1009F00000FCC2F810C0401C0828D1D31460B1F824
:100A000000C0BCF1FF0F34DD546800202EE000F17F
:100A1000080C4FF0010808FA0CF3B1F800C00CEA1A
:100A200003069E4221D183004FF00F0C0CFA03F70E
:100A3000BC4305FA03FC4CEA040491F803C0BCF182
:100A4000280F05D100F1080C08FA0CF8C2F8148040
:100A500091F803C0BCF1480F07D100F1080C4FF02A
:100A6000010808FA0CF8C2F81080401C0828CED300
:100A70005460BDE8F0814161704700BFFEE70000AF
:100A800008B50121142000F0BBF80120ADF80000EA
:100A900004208DF8030069460748FFF761FF4FF413
:100AA0000050ADF8000004208DF8030069460348AB
:100AB000FFF756FF08BD000000080140001001408C
:100AC00000BFFEE7704708B54FF4C06000F060F863
:100AD00006208DF8000001208DF801008DF802003D
:100AE0008DF80300684600F01BF828208DF8000000
:100AF000684600F015F808BD08B54FF4A06000F096
:100B000047F825208DF8000001208DF801008DF8B0
:100B100002008DF80300684600F002F808BD0000EE
:100B200070B5002100230F22C47804B3154C24684B
:100B300004F4E064C4F5E064210AC1F10403CA408E
:100B4000447804FA03F184781440214309010E4CDF
:100B50000678A155047804F01F050124AC400578FF
:100B60006D11AD0005F1E025C5F8004109E00478FC
:100B700004F01F050124AC40044D0678761145F8B9
:100B8000264070BD0CED00E000E400E080E100E0F4
:100B900002490143024A1160704700000000FA0553
:100BA0000CED00E07047000001460020034A506849
:100BB00020F440400843506070470000001002409D
:100BC00029B1064A52690243044B5A6104E0034AC0
:100BD00052698243014B5A61704700000010024085
:100BE00029B1064AD2690243044BDA6104E0034AA0
:100BF000D2698243014BDA61704700000010024065
:100C000029B1064A92690243044B9A6104E0034AFF
:100C100092698243014B9A617047000000100240C4
:100C200030B500210022002400232D4D6D6805F011
:100C30000C0121B1042905D0082923D105E0294D53
:100C4000056022E0274D05601FE0254D6D6805F425
:100C50007012234D6D6805F48034022505EB924235
:100C60001CB9214D554305600BE01D4D6D6805F421
:100C700000351DB11C4D5543056002E0194D55432B
:100C8000056002E0174D056000BF00BF144D6D68A0
:100C900005F0F0010909154D6B5C0568DD40456004
:100CA0000F4D6D6805F4E061090A104D6B5C4568F5
:100CB000DD4085600A4D6D6805F46051C90A0B4D31
:100CC0006B5C4568DD40C560054D6D6805F44041CD
:100CD000890B074D6B5CC568B5FBF3F5056130BD4D
:100CE0000010024000127A0000093D0014000020AC
:100CF00024000020704710B500F002F810BD00007D
:100D00000CB50020019000903348006840F480301A
:100D10003149086000BF3048006800F4003000909E
:100D20000198401C0190009818B90198B0F5A06F87
:100D3000F1D12948006800F4003010B10120009082
:100D400001E0002000900098012843D1234800686A
:100D500040F01000214908600846006820F00300B8
:100D600008600846006840F0020008601A484068C1
:100D7000194948600846406848600846406840F4A1
:100D8000806048600846406820F47C10486008464F
:100D9000406840F4E81048600846006840F0807001
:100DA000086000BF0C48006800F000700028F9D00F
:100DB0000948406820F00300074948600846406839
:100DC00040F00200486000BF0348406800F00C009B
:100DD0000828F9D10CBD000000100240002002409C
:100DE00030B50146B1F1807F01D3012030BD21F043
:100DF0007F40401E4FF0E022506150170F22002824
:100E000007DA13071D0E094B00F00F04241F1D55B0
:100E100003E013071C0E064B1C5400BF00204FF0CC
:100E2000E0229061072010610020DFE718ED00E06C
:100E300000E400E07047000010B50648006806496D
:100E4000B0FBF1F42046FFF7CBFF08B100BFFEE78F
:100E500010BD000000000020A086010010B513485E
:100E6000006840F0010011490860084640681049D8
:100E700008400E494860084600680E4908400B4982
:100E800008600846006820F4802008600846406832
:100E900020F4FE0048604FF41F008860FFF72BFF2E
:100EA0004FF000600449086010BD000000100240CF
:100EB0000000FFF8FFFFF6FE08ED00E010B501218D
:100EC000064800F021F840B105480068401C04497C
:100ED00008600121014800F008F810BD0010004032
:100EE00028000020CA4302827047CA43028270472A
:100EF00021B1028842F00102028004E002884FF62C
:100F0000FE731A400280704730B50246002000236D
:100F10000024158A05EA0103958905EA010413B145
:100F20000CB1012000E0002030BD1AB183890B43D1
:100F3000838102E083898B4383817047002202888A
:100F40001D4B98420ED01D4B98420BD0B0F1804FF4
:100F500008D01B4B984205D01A4B984202D01A4B2E
:100F6000984204D14FF68F731A404B881A43174B9F
:100F7000984207D0164B984204D04FF6FF431A40D0
:100F8000CB881A4302808B8883850B8803850A4BA4
:100F900098420BD0094B984208D00E4B984205D08E
:100FA0000D4B984202D00D4B984201D10B7A03862B
:100FB0000123838270470000002C0140003401406F
:100FC0000004004000080040000C004000100040F9
:100FD000001400400040014000440140004801402E
:100FE00021B1828942F40052828104E082894DF667
:100FF000FF731A408281704700B585B0012104203B
:10100000FFF7FEFD01218803FFF7FAFD4FF40070A2
:10101000ADF8100018208DF8130003208DF8120091
:1010200004A91748FFF79CFC4FF48060ADF810004E
:1010300004208DF8130004A91148FFF791FC4FF428
:10104000E13000900020ADF80400ADF80600ADF8E6
:101050000800ADF80C000C20ADF80A0069460948FC
:1010600000F038F8FFF748FD012240F2255105480D
:1010700000F00AF801210348FFF7B2FF05B000BDF8
:101080000008014000380140F0B503460024002666
:101090000025002040F66A17B94200D100BF18466B
:1010A000C1F3421401F01F06012707FA06F5012CCF
:1010B00001D10C3004E0022C01D1103000E01430DA
:1010C0001AB107682F43076002E00768AF43076063
:1010D000F0BD00002DE9F04786B005460E4600241D
:1010E000A24600BFA1460027B08900B100BF2F462D
:1010F0002C8A4CF6FF700440F08804432C82AC89A3
:101100004EF6F3100440B0883189084371890843D2
:101110000443AC81AC8A4FF6FF400440B0890443DD
:10112000AC8201A8FFF77CFD1F48874202D1DDF8A1
:1011300010A001E0DDF80CA0A88900F4004040B147
:101140000AEBCA0000EB0A1031684900B0FBF1F865
:1011500007E00AEBCA0000EB0A1031688900B0FB17
:10116000F1F86420B8FBF0F004012009642101FBD0
:101170001089A88900F4004040B1322000EBC9007A
:10118000B0FBF1F000F00700044308E0322000EB70
:1011900009106421B0FBF1F000F00F0004432C8132
:1011A00006B0BDE8F08700000038014000BFFEE750
:1011B00002E008C8121F08C1002AFAD17047704720
:1011C000002001E001C1121F002AFBD17047FFF788
:1011D0008FF9FFF7F5FAFFF753FCFFF72DFEFFF746
:1011E0000BFFFFF7A9F8FFF77BFBFFF745F900BFFF
:1011F000FEE7000014120008000000202C00000090
:10120000B0110008401200082C0000200C0400005F
:10121000C011000800A24A04000000000000000005
:10122000010203040607080900000000010203048C
:101230000102030406070809020406080000000072
:0400000508000145A9
:00000001FF
