:020000040800F2
:10000000C804002045010008831E0008531700089B
:100010007F1E0008B10E0008D92C00080000000067
:100020000000000000000000000000002124000883
:100030006512000800000000611F0008612500082B
:100040005F0100085F0100085F0100085F01000810
:100050005F0100085F010008671200085F010008E7
:100060005F0100085F0100085F0100085F010008F0
:100070005F0100085F0100085F0100085F010008E0
:100080005F0100085F0100085F0100085F010008D0
:100090005F0100085F0100085F0100085F010008C0
:1000A0005F0100085F0100085F0100085F010008B0
:1000B000292800085F010008412800085F010008A6
:1000C0005F0100085F0100085F0100085F01000890
:1000D0005F0100085F0100085F0100085F01000880
:1000E000791200085F0100085F0100085F01000845
:1000F0005F0100085F0100085F0100085F01000860
:100100005F0100085F0100085F0100085F0100084F
:100110005F0100085F010008592800085F0100081E
:100120005F0100085F0100085F0100085F0100082F
:10013000DFF80CD000F07AFC0048004701520008BC
:10014000C80400200648804706480047FEE7FEE74F
:10015000FEE7FEE7FEE7FEE7FEE7FEE7FEE7FEE777
:1001600089250008310100082DE9F0410024061B13
:10017000254671F1000605DA01240027D0EB0700BF
:1001800067EB0101161E73F1000605DA0027D2EBBA
:100190000702012567EB030300F0ACFA86460E4622
:1001A00017469C46AC4204D00025D0EB050E65EB0B
:1001B000010624B10020D2EB000760EB030C70466F
:1001C00031463A466346BDE8F081D2B201E000F81C
:1001D000012B491EFBD270470022F6E710B51346EB
:1001E0000A4604461946FFF7F0FF204610BD30B519
:1001F00004460020034600E05B1C934203D2E05C0F
:10020000CD5C401BF8D030BDF0B480EA0102D40FC1
:100210004200B2EB410F02D20246084611464A00A4
:1002200042D0C30DDDB2C1F3C752AD1A202D35DA6D
:10023000C1F3160141F4000204B15242C5F1200697
:1002400002FA06F12A411044B3EBD05F23D0C4B1C7
:10025000012DA0EBC35009DCF0BC4FF0004202EAD4
:10026000C352DBB200F5000000F09FBA400000F17D
:10027000807000EBC350A0F1807040EAD17049005B
:1002800009E0490841EAC071A0EBC35000F5000045
:10029000400800EBC350F0BC00F07EBA614201227E
:1002A00002EB4101001BF6E7F0BC704781F0004112
:1002B000AAE780F00040A7E780EA010210B502F04B
:1002C0000043400022D04A001FD0010E01EB126112
:1002D000C0F35600C2F3560240F4000042F400029C
:1002E000A0FB022000047F39140400D0401C50EA17
:1002F000124001D44000491EC2B20C0604EBD010DB
:10030000401C4008802A02D003E0002010BD20F0ED
:100310000100002900DA0020184310BD30B480EA43
:10032000010202F0004530F0004221F0004013D0FD
:1003300090B1C30DD40DC2F31601C0F31600E41A38
:1003400041F4000140F400027D34914201D3641C69
:1003500000E04900002C02DA30BC002070474FF466
:1003600000000023914201D3891A034340084FEA59
:100370004101F7D151B1914202D14FF0004105E066
:1003800002D24FF0010101E06FF0010103EBC45014
:10039000284430BC00F000BA2DE9FE4F804681EAC7
:1003A0000300C00F0C46009021F0004123F00045EF
:1003B000B8EB0200A94105D24046214690461C46B2
:1003C0000B46024623F00040104347D0270DC7F3E9
:1003D0000A00C3F30A510290401A019040286BDAD8
:1003E000C3F3130040F4801B0098924620B1002311
:1003F000D2EB030A63EB0B0B01985946C0F14002A4
:10040000504600F0A8F906460D4650465946019A56
:1004100000F0B0F910EB08006141002487EA1152A6
:1004200084EAE7731A4340D0009A62B3019A012A22
:100430004FEA075215DC001B61EB02014FF000424E
:1004400002EA0752CDE90042001C41F58011324614
:100450002B4600F0E7F903B0BDE8F08F4046214697
:10046000F9E7001B61EB0201001C41F58013001845
:100470005B412018A2F5001747EB030140EAD57055
:10048000B6196D4111E06D084FEA360645EAC075B0
:100490004FEA0752001B61EB0201001C41F580117D
:1004A00049084FEA30000019514132462B4603B04B
:1004B000BDE8F04F00F0A7B90098012240000023EA
:1004C000D0EB020263EBE073009821464FEAE07440
:1004D000B8EB000061EB0401E9E783F000435BE760
:1004E00081F0004158E72DE9FE4F81EA030404F052
:1004F000004421F0004100944FF0000B23F0004332
:1005000050EA01045ED052EA03045BD0C3F30A54FC
:10051000C1F30A552C44A4F2F3340194A0FB025415
:10052000C1F3130141F48011C3F3130343F48013A7
:1005300001FB024400FB034E840A970A44EA8154FB
:1005400047EA8357A4FB076802958D0A05FB0785D8
:100550004FEA932C04FB0C542705029D4FEA0658E2
:1005600047EA1637B5EB08056EEB070C870E920EBF
:1005700047EA811742EA8312A7FB0201B6EB0B019F
:1005800064EB00042B0D43EA0C335E1844EB1C5063
:10059000DA465146E7FB0201C5F313044FEA0B3379
:1005A00043EA14534FEA0432019C43EA0603A4F1E0
:1005B0000C040294009CCDE900B400F033F903B0C0
:1005C000BDE8F08F00200146F9E7C10F80EAE07036
:1005D0000844CA079623002100F0E7B896230022BA
:1005E000114600F0E2B800F0004220F00040C10DDA
:1005F000C0F3160040F400007F2901DA00207047A4
:10060000962903DCC1F19601C84001E09639884083
:10061000002AF4D04042704720F00040C10DC0F3E2
:10062000160040F400007F2901DA00207047962967
:1006300003DCC1F19601C840704796398840704785
:1006400000F0004230F000400AD0C10D01F56071A9
:10065000C0F3160042EA0151C20840071143704737
:1006600000200146704701F0004330B421F0004102
:1006700050EA010206D00A0DA2F56072C1F313011F
:10068000002A02DC30BC00207047440F44EAC10459
:10069000C100E01830BC00EBC25000F07DB8000093
:1006A000002801DBC0F10040002901DBC1F100415D
:1006B00081427047002801DBC0F10040002901DBC6
:1006C000C1F100418842704730B50B460146002019
:1006D0002022012409E021FA02F59D4205D303FA04
:1006E00002F5491B04FA02F52844151EA2F1010285
:1006F000F1DC30BD2DE9F05F0546002092469B46B7
:1007000088460646814640241BE028464146474627
:10071000224600F09DF953465A46C01A914110D323
:1007200011461846224600F016F82D1A67EB01080C
:100730004F4622460120002100F00DF817EB00097A
:100740004E41201EA4F10104DFDC484631462A4612
:100750004346BDE8F09F202A04DB203A00FA02F16C
:10076000002070479140C2F1200320FA03F319439F
:1007700090407047202A06DBCB17203A41FA02F05E
:1007800043EAE07306E041FA02F3D040C2F12002EE
:1007900091400843194670470029A8BF7047401C84
:1007A000490008BF20F00100704710B4B0FA80FC87
:1007B00000FA0CF050EA010404BF10BC704749B1C4
:1007C000CCF1200421FA04F411FA0CF118BF012134
:1007D00021430843A3EB0C01CB1D4FEA00614FEA14
:1007E000102042BF002010BC704700EBC3501044E3
:1007F0000029A4BF10BC7047401C490008BF20F06E
:10080000010010BC704710B5141E73F1000408DA23
:10081000401C41F1000192185B411A4301D120F0C4
:10082000010010BD2DE9F04D92469B4611B1B1FA81
:1008300081F202E0B0FA80F220329046FFF78BFF9F
:1008400004460F4640EA0A0041EA0B0153465A4665
:10085000084313D0114653EA010019D0C8F14002F1
:10086000504600F0F5F805460E46504659464246B9
:10087000FFF771FF084305D0012004E02046394608
:10088000BDE8F08D0020054346EAE0762C4337436F
:100890000A986305E40AA0EB08000022FD0A44EA76
:1008A00047540A3002D500200146E9E70105101936
:1008B0006941DDE9084500196941BDE8F04DA2E74D
:1008C0002DE9F04D81EA030404F0004B21F00045CE
:1008D00014464FF0000A23F0004150EA050220D0F0
:1008E00054EA01021DD0C5F30A570246C5F31303AB
:1008F000C1F31300C1F30A5640F4801543F480138A
:10090000A7EB0608101BD64608F2FD3873EB05006E
:1009100002D308F1010801E092185B41B8F1000F21
:1009200003DA00200146BDE8F08D00204FF480116D
:10093000064684460EE0171B73EB050705D3121B12
:1009400063EB050306434CEA010C49084FEA30000B
:1009500092185B4150EA0107EDD152EA030012D030
:1009600082EA040083EA0501084305D0101BAB416D
:1009700006D20122002306E000224FF0004302E0ED
:100980006FF0010253101AEB06004CEB085110EB0C
:100990000A0041EB0B01BDE8F04DFFF734BF70B525
:1009A00021F0004303430CD0C1F30A550024D5EBDA
:1009B000040564EB0403D617AD1AB34102DB002033
:1009C000014670BD201841EB025170BDC1F30A52BF
:1009D000C1F3130140F2FF3341F480119A4202DA6D
:1009E00000200146704740F233439A42A2F233425C
:1009F00002DC524200F02CB8FFF7ADBE30B5041E49
:100A000071F1000404DB4FF00044404264EB01014B
:100A1000141E73F1000405DB1C464FF000435242E4
:100A200063EB0403994208BF904230BD064C074D6A
:100A300006E0E06840F0010394E8070098471034AE
:100A4000AC42F6D3FFF778FB207100084071000834
:100A5000202A04DB203A21FA02F00021704721FA13
:100A600002F3D040C2F1200291400843194670477A
:100A70002DE9F04D00231A461B1A8A4103DB0020A2
:100A80000146BDE8F08DC1F30A52C1F3130141F4F0
:100A900080154FF0000BD10702D100186D41521E96
:100AA0000027044640F2FF11384601EB620A3E4639
:100AB0008046024600204FF48011FFF7C9FFC2199B
:100AC0007141BB1846EB0100B4EB030C75EB000C55
:100AD00004D3E41A65EB000517460E46241908F105
:100AE00001006D4180463428E3DDF91946EB06002C
:100AF000091BA84103D24FF0FF32134601E0002248
:100B000013461BEB070046EB0A51BDE8F04DFFF71B
:100B10007ABE21B1826842F00102826003E08268FD
:100B200022F001028260704721B1826842F4807233
:100B3000826003E0826822F480728260704701461E
:100B400000208A6802F004020AB1012000E00020BF
:100B50007047014600208A6802F008020AB10120AD
:100B600000E000207047000030B50246002000235E
:100B700050680F4C20400D790C6844EA052420434E
:100B8000506090680B4C2040D1E902542C434D79C1
:100B900044EA450420439060D06A20F470000C7C45
:100BA000641EE4B2234340EA0350D06230BD00002B
:100BB000FFFEF0FFFDF7F1FFF0B504460D46002003
:100BC0000021092D11DDE068A5F10A0606EB4607B4
:100BD000072606FA07F18843A5F10A0606EB460642
:100BE00003FA06F10843E0600CE0206905EB4507D5
:100BF000072606FA07F1884305EB450603FA06F1D6
:100C000008432061072A0FDA606B561E06EB860741
:100C10001F2606FA07F18843561E06EB860605FADC
:100C200006F10843606322E00D2A0FDA206BD61F1D
:100C300006EB86071F2606FA07F18843D61F06EB48
:100C4000860605FA06F10843206310E0E06AA2F187
:100C50000D0606EB86071F2606FA07F18843A2F168
:100C60000D0606EB860605FA06F10843E062F0BDC4
:100C7000816841F008018160704721B1826842F4C7
:100C8000A002826003E0826822F4A00282607047C2
:100C9000816841F0040181607047000008B50121BE
:100CA000102001F08BF93F20ADF8000000208DF8F6
:100CB00003006946014800F0BDFC08BD001001407A
:100CC00010B5FFF7EBFF00F001F810BD00B591B0D3
:100CD0000121084601F052F90121480201F06EF9A4
:100CE000444800F0F3F84448069044480790002038
:100CF00008900620099000200A9080200B90400068
:100D00000C9080000D9020200E9000020F9000208B
:100D1000109006A9374800F07FF90121354800F00E
:100D2000C9F80020019001208DF808008DF8090015
:100D30004FF4602003900020049006208DF81400EA
:100D400001A92D484C38FFF70FFF4FF4404001F048
:100D500009F9052301220A2127484C38FFF72CFF07
:100D6000052302220B2124484C38FFF725FF0523D9
:100D700003220C2120484C38FFF71EFF05230422D4
:100D80000D211D484C38FFF717FF05231A460E2189
:100D900019484C38FFF710FF052306220F2116488B
:100DA0004C38FFF709FF012113484C38FFF7BCFE10
:100DB000012111484C38FFF7ACFE0F484C38FFF7C3
:100DC00057FF00BF0C484C38FFF7C3FE0028F9D18D
:100DD00009484C38FFF75CFF00BF07484C38FFF765
:100DE000AEFE0028F9D1012103484C38FFF745FF3A
:100DF00011B000BD080002404C240140AC000020AE
:100E000010B500F023F800F001F810BD0EB5012177
:100E1000102001F0C3F840F2E730ADF8040047209D
:100E2000ADF800006946084801F004FE01210648BB
:100E300001F026FD01221146034801F0C4FD012105
:100E4000014801F023FD0EBD0010004008B54FF42D
:100E5000E06001F07BF836208DF8000000208DF86E
:100E6000010003208DF8020001208DF80300684680
:100E700001F034F808BD000008B50121042001F09C
:100E80009DF84FF48070ADF8000010208DF803003D
:100E900003208DF802006946044800F0CBFB4FF4B4
:100EA0008071024800F051FC08BD000000080140BC
:100EB00000BFFEE721B1026842F00102026004E0D7
:100EC00002684FF6FE731A400260704701684FF6E1
:100ED000FE72114001600021016041608160C160CB
:100EE0004B49884208D14A490839496841F00F0105
:100EF000474A083A51608AE045491431884208D18E
:100F000043490839496841F0F001414A083A5160C3
:100F10007DE03F492831884208D13D490839496878
:100F200041F470613A4A083A516070E038493C3106
:100F3000884208D136490839496841F47041344A39
:100F4000083A516063E032495031884208D1304953
:100F50000839496841F470212D4A083A516056E039
:100F60002B496431884208D129490839496841F43C
:100F70007001274A083A516049E025497831884292
:100F800008D123490839496841F07061204A083A7C
:100F900051603CE01F49884206D1011F096841F0B9
:100FA0000F01021F116032E01A491431884208D142
:100FB0001849091F096841F0F001164A121F116013
:100FC00025E014492831884208D11249091F0968CF
:100FD00041F470610F4A121F116018E00D493C3155
:100FE000884208D10B49091F096841F47041094A38
:100FF000121F11600BE007495031884207D10549A3
:10100000091F096841F47021024A121F11607047DC
:10101000080002400804024010B50022026847F6AA
:10102000F0739A430C6A8B6823430C6923434C6921
:1010300023438C692343CC6923434C6A23438C6A42
:1010400023431A430260CB6843600B6883604B689C
:10105000C36010BD38B5002000906B460122752199
:10106000682004F027F82CA001F038FE9DF800005D
:1010700068280ED000BF3148006800F4E0603049B5
:101080000843001D2D490860BFF34F8F00BF00BF0C
:10109000FEE704F001FA00283CD1782005F006F8BC
:1010A00010B91DA001F01AFE782004F0E3F810B981
:1010B00024A001F013FEC82004F0AAFF10B92BA051
:1010C00001F00CFE03F066F810B932A001F006FE44
:1010D0003D4804F05AF8044603F0B6FA10B93BA0B4
:1010E00001F0FCFD40F2731002F0FCFE10B941A0CB
:1010F00001F0F4FDC82003F0D7F910B947A001F0C2
:10110000EDFD05F07DF8012004F07EFE10B94CA045
:1011100001F0E4FD38BD00006D70755F7365745FAC
:1011200073656E736F7220636F6D706C657465208C
:101130002E2E2E2E2E2E0D0A000000000CED00E0AB
:101140000000FA056D70755F636F6E666967757292
:10115000655F6669666F20636F6D706C657465208E
:101160002E2E2E2E2E2E0D0A000000006D70755FA3
:101170007365745F73616D706C655F726174652017
:10118000636F6D706C657465202E2E2E2E2E2E0DC5
:101190000A000000646D705F6C6F61645F6D6F7456
:1011A000696F6E5F6472697665725F6669726D778A
:1011B00061726520636F6D706C657465202E2E2ED4
:1011C0002E2E2E0D0A00000090000020646D705F2E
:1011D0007365745F6F7269656E746174696F6E2098
:1011E000636F6D706C657465202E2E2E2E2E2E0D65
:1011F0000A000000646D705F656E61626C655F6619
:1012000065617475726520636F6D706C65746520BF
:101210002E2E2E2E2E2E0D0A00000000646D705F03
:101220007365745F6669666F5F7261746520636F72
:101230006D706C657465202E2E2E2E2E2E0D0A00DC
:101240006D70755F7365745F646D705F73746174E6
:101250006520636F6D706C657465202E2E2E2E2EAA
:101260002E0D0A00704710B5012000F017F810B1DC
:10127000012000F00DF810BD10B54FF4005000F043
:101280000DF818B14FF4005000F002F810BD000046
:101290000149086070470000140401400146002025
:1012A0000022074B1B6803EA0102054B14331B683D
:1012B0000B4013B10AB1012000E00020704700008C
:1012C00000040140002123498279002A3AD00A46CD
:1012D000126803689A430B461A600A1D1268036875
:1012E0009A430B1D1A60027911440A6803681A4375
:1012F0000A60184A0832126803689A43154B08338B
:101300001A601A1D126803689A43124B0C331A6054
:101310004279102A0ED11A1F126803681A430D4B26
:1013200008331A601A1D126803681A43094B0C33FC
:101330001A600DE00749427911440A6803681A43AC
:101340000A6005E0027911440A6803689A430A605A
:1013500070470000000401400EB50121052000F097
:101360002DFE00F08FFD0120ADF8080004208DF85F
:101370000B0002A9194800F05DF90021084600F0B1
:1013800039F90120009000208DF8040008208DF824
:10139000050001208DF806006846FFF793FF4FF423
:1013A0000050ADF8080004208DF80B0002A90C488D
:1013B00000F040F90D21022000F01CF94FF400501C
:1013C000009000208DF804000C208DF8050001200D
:1013D0008DF806006846FFF775FF0EBD0008014056
:1013E0000010014000B587B00121084600F0D6FD8D
:1013F0000121042000F0E2FD0320ADF800000420EC
:101400008DF8030069461E4800F014F904A801F0A5
:1014100063FB0020ADF810004FF6FF70ADF814002C
:101420000020ADF81600ADF8120004A94FF080407E
:1014300001F000FB00231A4603214FF0804001F029
:1014400031FA01A801F0B6FA0A20ADF80C0001A9A2
:10145000400701F059FA0121880701F011FA012231
:101460001146900701F0AFFA00214FF0804001F0E3
:10147000B3FA0121880701F009FA07B000BD0000A6
:101480000008014000B587B00121042000F086FD6E
:101490000121082000F092FDC020ADF800000420DA
:1014A0008DF8030069461C4800F0C4F804A801F058
:1014B00013FB0020ADF810004FF6FF70ADF81400DC
:1014C0000020ADF81600ADF8120004A9134801F091
:1014D000B1FA00231A460321104801F0E3F901A8EC
:1014E00001F068FA0A20ADF80C0001A90B4801F0E0
:1014F0000BFA0121094801F0C3F9012211460748FE
:1015000001F061FA0021054801F066FA0121034863
:1015100001F0BCF907B000BD000C0140000800401C
:1015200008B50121042000F049FD4020ADF800007D
:1015300018208DF8030003208DF8020069461B482F
:1015400000F078F80121042000F038FD8020ADF88B
:10155000000018208DF8030003208DF80200694672
:10156000124800F067F80121082000F027FD012053
:10157000ADF8000018208DF8030003208DF802005C
:1015800069460B4800F056F80121082000F016FDCE
:101590000220ADF8000018208DF8030003208DF81C
:1015A00002006946024800F045F808BD0008014005
:1015B000000C014010B5FFF7B3FF00F001F810BDBB
:1015C0000EB50121022000F0E9FC0920ADF804006D
:1015D0004720ADF800000020ADF80600ADF802008D
:1015E0008DF808006946024801F024FA0EBD00009B
:1015F0000004004030B500228B071C0F0F2303FAB4
:1016000004F20B4B8C1053F824309343084C8D108C
:1016100044F8253023468C1053F824308C07240FCF
:1016200000FA04F42343024C8D1044F8253030BDF9
:10163000080001402DE9F041024600250026002067
:1016400000230024002791F803C00CF00F0591F847
:1016500003C00CF0100CBCF1000F03D091F802C0D5
:101660004CEA050591F800C0BCF1000F31D01468B8
:1016700000202BE04FF0010C0CFA00F3B1F800C091
:101680000CEA03069E4220D183004FF00F0C0CFAA7
:1016900003F7BC4305FA03FC4CEA040491F803C0C9
:1016A000BCF1280F06D14FF0010C0CFA00FCC2F877
:1016B00014C00AE091F803C0BCF1480F05D14FF007
:1016C000010C0CFA00FCC2F810C0401C0828D1D351
:1016D0001460B1F800C0BCF1FF0F34DD5468002085
:1016E0002EE000F1080C4FF0010808FA0CF3B1F8F5
:1016F00000C00CEA03069E4221D183004FF00F0C7C
:101700000CFA03F7BC4305FA03FC4CEA040491F815
:1017100003C0BCF1280F05D100F1080C08FA0CF841
:10172000C2F8148091F803C0BCF1480F07D100F152
:10173000080C4FF0010808FA0CF8C2F81080401CA1
:101740000828CED35460BDE8F08141617047016143
:10175000704700BFFEE721B1028842F0010202801B
:1017600004E002884FF6FE731A40028070470000C2
:1017700000B585B00121082000F020FC01214805BA
:1017800000F00CFC4020ADF810001C208DF8130078
:1017900003208DF8120004A91348FFF74BFF8020A7
:1017A000ADF8100004A91048FFF744FF4FF4806023
:1017B000ADF80A000001ADF80C000C4800904BF6A3
:1017C000FF70ADF806000020ADF804005F20ADF812
:1017D00008006946064800F03FF801210448FFF779
:1017E000BAFF05B000BD0000000C0140801A0600E1
:1017F0000054004010B500F009F800F0A3F8A02054
:101800000149088010BD00002C00002008B501210E
:10181000480500F0C3FB0121082000F0CFFB402069
:10182000ADF8000003208DF802001C208DF80300A5
:1018300069460848FFF7FEFE8020ADF8000003204F
:101840008DF802001C208DF8030069460148FFF75F
:10185000F1FE08BD000C01402DE9F04385B00446BF
:101860000D460026B1460427DFF8CC80A6884FF647
:10187000C0700640684600F0B1FBDDF808802F48D4
:10188000B8FBF0F01FFA80F946EA0906A680208826
:101890004FF6FE71084020800026294928688842BA
:1018A0000CD828684000B8FBF0F087B2042F00DAAB
:1018B00004273E4309F10100208427E0E8884BF625
:1018C000FF71884206D1286800EB4000B8FBF0F0B9
:1018D00087B209E0286800EBC00101EB0010B8FBFB
:1018E000F0F087B247F48047C7F30B0008B947F020
:1018F000010747F4004006434FF4967009FB00F0DF
:101900004FF47A7190FBF1F0401C2084A68320886C
:1019100040F00100208026884FF6F5300640A88868
:101920006989084306432680A889298908432081BC
:1019300005B0BDE8F083000000127A0040420F00BD
:10194000A08601001FB50020ADF804004BF6FF7023
:10195000ADF806000A20ADF808004FF48060ADF83D
:101960000A000001ADF80C000548009069460548E2
:10197000FFF772FF01210348FFF7EDFE1FBD0000D6
:10198000801A06000054004070B505460E4600243B
:1019900000F0EEF8284600F0B9F8641C00F040F9B9
:1019A000304600F0B3F8641C00F03AF900F0E0F8BB
:1019B000691CC8B200F0AAF8641C00F031F90020DC
:1019C00000F06CF8044600F007F9204670BD0000F6
:1019D00010B500200E4908600E48006820F07040E5
:1019E0000C4908600846006840F04050086000203C
:1019F0000949C1F89C01012002F038FA012004498C
:101A0000086002F033FA00200349C1F8980110BDC4
:101A100098812142000C01400080214208B501213B
:101A2000082000F0CBFAC020ADF8000010208DF89F
:101A3000030003208DF8020069460448FFF7FAFD11
:101A4000C0210248FFF783FE08BD0000000C0140E2
:101A500010B500200E4908600E48006820F0704064
:101A60000C4908600846006840F0405008600120BA
:101A70000949C1F89C0102F0F9F901200449086004
:101A800002F0F4F900200449C1F8980110BD0000EB
:101A900098812142000C01400080214270B505462A
:101AA00000241748006820F0704015490860084677
:101AB000006840F000400860002616E00020114950
:101AC0000860022002F0D2F901200F49C1F8980104
:101AD0006006040E0B487C38006808B1601CC4B274
:101AE000022002F0C3F9701CC6B2082EE6DB15B165
:101AF000FFF76EFF01E0FFF7ABFF204670BD00006F
:101B0000000C0140988121420080214270B50446BA
:101B10001448006820F070401249086008460068C8
:101B200040F04050086000200F490860002516E092
:101B3000E0090D49091D08606006040E012002F04D
:101B400095F901200949C1F8980102F08FF90020A8
:101B500005490860012002F089F9681CC5B2082D0A
:101B6000E6DB70BD000C01409881214200802142DB
:101B700010B51648006820F0704014490860084607
:101B8000006840F040500860012011490860114889
:101B9000D0F81C0108B9002010BD01200C49091F14
:101BA000086002F063F900200A49C1F89C01084866
:101BB0008038006808B10020EEE7012002F056F9F5
:101BC00000200349091F08600120E5E7000C0140DF
:101BD0009C8121420080214210B50E48006820F00F
:101BE00070400C4908600846006840F040500860AA
:101BF0000020094908600949C1F89C01012002F050
:101C000035F90120044908600449C1F89C0102F03B
:101C10002DF910BD000C0140988121420080214225
:101C200010B500241548006820F070401349086082
:101C30000846006840F00040086001201049086034
:101C400002F014F901200F49C1F8980102F00EF9D1
:101C50000AE0601CC4B2322C03DDFFF7BDFF002098
:101C600010BD012002F002F9054880380068002804
:101C7000EFD10349091F08600120F1E7000C014082
:101C80009C8121420080214270B505460E461446D3
:101C900031462846FFF778FE2070012070BDF8B568
:101CA00006460F4614461D466A4639463046FFF73B
:101CB000EBFF2DB10120A0409DF80010084305E086
:101CC0000120A0409DF8001021EA0000C0B2009061
:101CD0009DF800203946304600F036F8F8BD2DE971
:101CE000F8430746884614461D46089E6A46414604
:101CF0003846FFF7C9FF28B3601CFF2101FA00F046
:101D0000C4F108012944491EFF220A41104300F092
:101D1000FF09C5F1080006FA00F0C6B2C4F10700D9
:101D200006419DF8000000EA090000909DF80000BF
:101D3000304300909DF800204146384600F004F8FA
:101D4000BDE8F8830020FBE737B504460D4602AB3B
:101D500001222946204600F001F83EBD2DE9F04160
:101D600080460D4616461F460024FFF701FF4046F9
:101D7000FFF7CCFEFFF754FF2846FFF7C7FEFFF73B
:101D80004FFF00BF06E0385DFFF7C0FEFFF748FFDA
:101D9000601CC4B2B442F6DBFFF71EFF0120BDE8B1
:101DA000F081000008B50121142000F007F901209E
:101DB000ADF8000004208DF8030069460748FFF7DE
:101DC00039FC4FF40050ADF8000004208DF80300FA
:101DD00069460348FFF72EFC08BD000000080140DB
:101DE0000010014010B5022000F010F8032000F0B0
:101DF00021F8002000F014F8002000F037F800204F
:101E000000F02BF8002000F01FF810BD38B5044694
:101E1000032302226B21D0200094FFF760FF38BD1E
:101E200038B50446022304221C21D0200094FFF779
:101E300056FF38BD38B50446022304221B21D020AA
:101E40000094FFF74CFF38BD10B50446234601222D
:101E50003721D020FFF723FF10BD10B504462346DD
:101E600005226A21D020FFF71AFF10BD10B50446E5
:101E7000234606226B21D020FFF711FF10BD00BFC3
:101E8000FEE7704708B54FF4C06000F05FF8062029
:101E90008DF8000001208DF801008DF802008DF80A
:101EA0000300684600F01AF828208DF80000684604
:101EB00000F014F808BD08B54FF4A06000F046F833
:101EC00025208DF8000001208DF801008DF802001A
:101ED0008DF80300684600F001F808BD70B50021D8
:101EE00000230F22C47804B3154C246804F4E06482
:101EF000C4F5E064210AC1F10403CA40447804FA3D
:101F000003F184781440214309010E4C0678A15551
:101F1000047804F01F050124AC4005786D11AD0074
:101F200005F1E025C5F8004109E0047804F01F053B
:101F30000124AC40044D0678761145F8264070BD6A
:101F40000CED00E000E400E080E100E00249014324
:101F5000024A1160704700000000FA050CED00E035
:101F60007047000001460020034A506820F44040BA
:101F700008435060704700000010024029B1064A33
:101F800052690243044B5A6104E0034A5269824396
:101F9000014B5A61704700000010024029B1064A07
:101FA000D2690243044BDA6104E0034AD2698243F6
:101FB000014BDA61704700000010024029B1064A67
:101FC00092690243044B9A6104E0034A9269824396
:101FD000014B9A61704700000010024030B50021AB
:101FE0000022002400232D4D6D6805F00C0121B165
:101FF000042905D0082923D105E0294D056022E0F8
:10200000274D05601FE0254D6D6805F47012234DC6
:102010006D6805F48034022505EB92421CB9214D10
:10202000554305600BE01D4D6D6805F400351DB18D
:102030001C4D5543056002E0194D5543056002E013
:10204000174D056000BF00BF144D6D6805F0F0012D
:102050000909154D6B5C0568DD4045600F4D6D68E5
:1020600005F4E061090A104D6B5C4568DD40856050
:102070000A4D6D6805F46051C90A0B4D6B5C4568EB
:10208000DD40C560054D6D6805F44041890B074D85
:102090006B5CC568B5FBF3F5056130BD001002400F
:1020A00000127A0000093D001400002024000020E6
:1020B0002DE9F04F8FB00CA889490DAB08AACDE9E6
:1020C00000108849884802F071F88548008800F4BB
:1020D000807000287ED00898FEF777FA04464FF00B
:1020E0009D41FEF71BF9814908600998FEF76DFADA
:1020F00004464FF09D41FEF711F97D4908600A98AA
:10210000FEF763FA04464FF09D41FEF707F979495F
:1021100008600B98FEF759FA04464FF09D41FEF710
:10212000FDF875490860714801684FF08040FEF77E
:10213000C3F806906F4801680698FEF7BDF882461E
:102140006B4801684FF04040FEF7B6F806906A48C9
:1021500001680698FEF7B0F883465146FEF754F83A
:102160000790FEF76DFA804601F008FB06464FF037
:102170006632624BFEF7B7F90446FEF774FA60491F
:1021800008605C4801684FF08040FEF795F80390C6
:10219000584801680398FEF78FF882465448016852
:1021A0004FF04040FEF788F80390514801680398CB
:1021B000FEF782F883465146FEF778F881464FF0E5
:1021C0007E51FEF721F80446FEF73AFACDE9040104
:1021D000464800E081E001684FF08040FEF76CF86F
:1021E0008346434801685846FEF766F881464148F1
:1021F00001684FF08040FEF75FF883463E48016873
:102200005846FEF759F882464946FDF7FDFF044659
:10221000FEF716FA0746DDE9042301F0F7FC4FF05C
:102220006632364BCDE90601FEF75DF90546FEF74D
:102230001AFA34490860304801680068FEF73CF833
:1022400003902C4801680068FEF736F80290284891
:1022500001680068FEF730F883462448016800688A
:10226000FEF72AF859460190FDF7CEFF8246029903
:10227000FEF71CF881460399FEF718F80446FEF7AE
:10228000DFF9CDE904011C48016818480068FEF731
:1022900013F882461748016815480068FEF70CF8E5
:1022A00083465146FDF7B0FF81464FF08041FEF76F
:1022B00003F80446FEF7C4F90746DDE9042301F0FC
:1022C000A5FC4FF066320D4BCDE90601FEF70BF988
:1022D0000546FEF7C8F90C4908600FB0BDE8F08F5D
:1022E000700000206A0000206400002080000020B0
:1022F00084000020880000208C00002066A64C404E
:1023000074000020780000207C00002021B10288A9
:1023100042F04002028004E002884FF6BF731A4088
:102320000280704700B587B001210803FFF746FE21
:102330000121D420FFF742FE0120ADF80400032064
:102340008DF8060010208DF8070001A92248FFF73C
:1023500071F92020ADF8040018208DF8070001A9BC
:102360001E48FFF767F94020ADF8040001A91B489B
:10237000FFF760F98020ADF8040001A91748FFF7C6
:1023800059F901211448FFF7E2F90020ADF80800DF
:102390004FF48270ADF80A000020ADF80C00022066
:1023A000ADF80E000120ADF810004002ADF81200AB
:1023B0000820ADF814000020ADF816000720ADF895
:1023C000180002A9064800F00DF801210448FFF7A3
:1023D0009DFF07B000BD0000001001400008014053
:1023E0000030014010B50022028802F441520B88EF
:1023F0004C8823438C882343CC8823430C89234374
:102400004C8923438C892343CC8923431A4302807C
:10241000838B4FF2FF74234083830B8A038210BDAA
:10242000704710B500F002F810BD00000CB5002098
:10243000019000903348006840F4803031490860D2
:1024400000BF3048006800F4003000900198401C44
:102450000190009818B90198B0F5A06FF1D1294802
:10246000006800F4003010B10120009001E000206D
:1024700000900098012843D12348006840F01000E4
:10248000214908600846006820F0030008600846FB
:10249000006840F0020008601A4840681949486026
:1024A0000846406848600846406840F480604860DC
:1024B0000846406820F47C1048600846406840F4B4
:1024C000E81048600846006840F08070086000BF6F
:1024D0000C48006800F000700028F9D009484068F6
:1024E00020F00300074948600846406840F00200B9
:1024F000486000BF0348406800F00C000828F9D18C
:102500000CBD0000001002400020024030B5014622
:10251000B1F1807F01D3012030BD21F07F40401E0A
:102520004FF0E022506150170F22002807DA1307FE
:102530001D0E094B00F00F04241F1D5503E0130767
:102540001C0E064B1C5400BF00204FF0E02290618F
:10255000072010610020DFE718ED00E000E400E054
:102560007047000010B5064800680649B0FBF1F45A
:102570002046FFF7CBFF08B100BFFEE710BD00000B
:1025800000000020A086010010B51348006840F04C
:1025900001001149086008464068104908400E498A
:1025A0004860084600680E4908400B490860084624
:1025B000006820F4802008600846406820F4FE008F
:1025C00048604FF41F008860FFF72BFF4FF000605A
:1025D0000449086010BD0000001002400000FFF830
:1025E000FFFFF6FE08ED00E0F0B50C4615460022B0
:1025F0000021068C4FF6FE773E400684028B018C4C
:102600004FF60C7632407E1C06EA03162E43324308
:10261000104EB0420ED0104EB0420BD0B0F1804FF1
:1026200008D00E4EB04205D00D4EB04202D00D4E35
:10263000B04206D14FF6FD76314044F001063143F9
:1026400005E04FF6F576314044F001063143028350
:102650000184F0BD002C0140003401400004004022
:1026600000080040000C0040F0B50C461546002262
:1026700000210026078C4FF6EF7C07EA0C07078441
:10268000028B018C4FF6FF7707EA041640F6FF47EE
:102690003A404FF6FF7707EA03373A434FF6FF77A2
:1026A00007EA05273A43114FB8420ED0104FB842FF
:1026B0000BD0B0F1804F08D00E4FB84205D00E4F6E
:1026C000B84202D00D4FB84206D14FF6DF773940FD
:1026D00046F01007394305E04FF65F77394044F084
:1026E0001007394302830184F0BD0000002C014033
:1026F000003401400004004000080040000C00408D
:10270000F0B50C461546002200210026078C4FF636
:10271000FF6C07EA0C070784828B018C4FF6FF776A
:1027200007EA04264FF60C773A404FF6FF7707EAA0
:1027300003172F433A43114FB8420ED0104FB842FF
:102740000BD0B0F1804F08D00E4FB84205D00E4FDD
:10275000B84202D00D4FB84206D14FF6FF5739406C
:1027600046F48077394305E04FF2FF57394044F48F
:102770008077394382830184F0BD0000002C014042
:10278000003401400004004000080040000C0040FC
:10279000F0B50C461546002200210026078C4EF6A7
:1027A000FF7C07EA0C070784828B018C4FF6FF77CA
:1027B00007EA043640F6FF473A404FF6FF7707EA4C
:1027C00005273A434FF6FF7707EA03373A43114F9D
:1027D000B8420ED0104FB8420BD0B0F1804F08D0A5
:1027E0000E4FB84205D00E4FB84202D00D4FB8423E
:1027F00006D14DF6FF77394046F48057394305E05E
:1028000047F6FF57394044F48057394382830184A7
:10281000F0BD0000002C01400034014000040040E5
:1028200000080040000C00404FF08040008A4FF04C
:102830008040008A20F001004FF0804108827047FC
:10284000044800880348008820F0010001490880FE
:10285000704700001008004010B50121064800F044
:1028600042F840B105480068401C04490860012155
:10287000014800F008F810BD0010004028000020BA
:10288000CA4302827047CA430282704721B102885C
:1028900042F00102028004E002884FF6FE731A4003
:1028A00002807047F0B50C4615461E4600210022F6
:1028B00000230189028B038C4FF6F87739402143BE
:1028C0004FF6FC473A4040F201173A434FF6DD77A6
:1028D0003B404FF6FF7707EA06172F433B43018142
:1028E00002830384F0BD30B502460020002300249B
:1028F000158A05EA0103958905EA010413B10CB1B3
:10290000012000E0002030BD70B505460C4624488B
:1029100085420ED0234885420BD0B5F1804F08D0B8
:102920002148854205D02148854202D02048854271
:1029300000D100E000BF208850B92389A2886188B7
:102940002846FFF751FEE188284600F047F825E0C9
:10295000208804280AD12389A28861882846FFF7A5
:1029600083FEE188284600F042F817E02088082816
:102970000AD12389A28861882846FFF7C1FEE18831
:10298000284600F041F809E02389A288618828469A
:10299000FFF7FEFEE188284600F03FF870BD00001A
:1029A000002C0140003401400004004000080040B9
:1029B000000C004000210180418001218180002124
:1029C000C180018170471AB183890B43838102E082
:1029D00083898B438381704781847047028B4FF6D4
:1029E000F3731A400283028B0A4302837047028BFF
:1029F0004FF2FF331A400283028B4FF6FF7303EA54
:102A000001231A4302837047828B4FF6F3731A40F7
:102A10008283828B0A4382837047828B4FF2FF331B
:102A20001A408283828B4FF6FF7303EA01231A4315
:102A300082837047002202881D4B98420ED01D4BA6
:102A400098420BD0B0F1804F08D01B4B984205D074
:102A50001A4B984202D01A4B984204D14FF68F730A
:102A60001A404B881A43174B984207D0164B98428E
:102A700004D04FF6FF431A40CB881A4302808B885C
:102A800083850B8803850A4B98420BD0094B9842EB
:102A900008D00E4B984205D00D4B984202D00D4BFA
:102AA000984201D10B7A038601238382704700008C
:102AB000002C0140003401400004004000080040A8
:102AC000000C004000100040001400400040014095
:102AD00000440140004801404FF6FF718180002111
:102AE0000180C18041800172704721B1828942F426
:102AF0000052828104E082894DF6FF731A40828180
:102B00007047000000B585B001210420FFF756FA98
:102B100001218803FFF752FA4FF40070ADF810005E
:102B200018208DF8130003208DF8120004A917480F
:102B3000FEF780FD4FF48060ADF8100004208DF8A2
:102B4000130004A91148FEF775FD4FF4E130009021
:102B50000020ADF80400ADF80600ADF80800ADF8AF
:102B60000C000C20ADF80A006946094800F044F852
:102B7000FFF7A1F9012240F22551054800F017F8AE
:102B800001210348FFF7B1FF05B000BD0008014077
:102B90000038014002460020B1F5007F00D100BF9F
:102BA00013880B400BB1012000E000207047F0B506
:102BB0000346002400260025002040F66A17B9428B
:102BC00000D100BF1846C1F3421401F01F060127CF
:102BD00007FA06F5012C01D10C3004E0022C01D1DA
:102BE000103000E014301AB107682F43076002E08C
:102BF0000768AF430760F0BD2DE9F04786B0054692
:102C00000E460024A24600BFA1460027B08900B1AD
:102C100000BF2F462C8A4CF6FF700440F088044316
:102C20002C82AC894EF6F3100440B08831890843F9
:102C3000718908430443AC81AC8A4FF6FF400440DD
:102C4000B0890443AC8201A8FFF7C8F91F48874246
:102C500002D1DDF810A001E0DDF80CA0A88900F495
:102C6000004040B10AEBCA0000EB0A10316849008D
:102C7000B0FBF1F807E00AEBCA0000EB0A1031687C
:102C80008900B0FBF1F86420B8FBF0F004012009E2
:102C9000642101FB1089A88900F4004040B1322072
:102CA00000EBC900B0FBF1F000F00700044308E0BE
:102CB000322000EB09106421B0FBF1F000F00F00AE
:102CC00004432C8106B0BDE8F087000000380140C5
:102CD000C1F308028280704700BFFEE70FB4054BC6
:102CE00010B503A9044A029800F05CF910BC5DF825
:102CF00014FB00005D4A0008A4000020490050EACF
:102D0000C12018BF04204A0D18BF40F0010040F256
:102D1000FF72B2EB515F08BF40F00200012808BF0C
:102D2000052070472DE9F0414F1E00EBC701044616
:102D3000D1E9000115461E4637F006020DD02A469D
:102D40003346FDF7D0FB7F1E04EBC703D3E9002316
:102D5000FDF722FB37F00602F1D1022F25D0042F18
:102D600013D0062F18BFBDE8F0812A463346FDF781
:102D7000BAFBD4E90A23FDF70FFB2A463346FDF7D9
:102D8000B2FBD4E90823FDF707FB2A463346FDF7DB
:102D9000AAFBD4E90623FDF7FFFA2A463346FDF7DE
:102DA000A2FBD4E90423FDF7F7FA2A463346FDF7E0
:102DB0009AFBD4E90223FDF7EFFA2A463346FDF7E2
:102DC00092FBD4E90023BDE8F041FDF7E5BA01220A
:102DD000FDF7E5BDFDF7E0BA0022134610461146A7
:102DE000FDF76EBD024A00201107FDF7D8BD0000B7
:102DF00001FDFFFF02E008C8121F08C1002AFAD136
:102E000070477047002001E001C1121F002AFBD16A
:102E1000704700000149086070470000A8000020CA
:102E20002DE9FF5F82B00021DDE90430020DDDF8FD
:102E300040B0034318D044F61050A2F2FF32424390
:102E40001514119801281FD0A5EB0B00401C5FEA58
:102E5000000A4FF000064E4FDFF83891B04650465A
:102E600015D5CAF1000413E0119801244AA30128E2
:102E700001D16FEA0B010298119AC0E90031C0E953
:102E8000024206B0BDE8F09FCBF10000DFE7044648
:102E90000021404A491842EB0450CDE9001012E0ED
:102EA000E00707D032463B4640464946FDF71BFB4C
:102EB0008046894632463B4610461946FDF713FBCD
:102EC00006460F466410002CEAD1DDE90401DDE975
:102ED0000023BAF1000F06DAFDF705FB42464B4628
:102EE000FDF701FB05E0FDF7EBFC42464B46FDF725
:102EF000E7FC04460E460022284BFDF77FFD03D871
:102F00004FF0FF30014607E00022254B20463146B6
:102F1000FDF742FAFDF75AFD102409E0002C0ADB08
:102F20000A220023FDF7E6FB039B30321A55641E8C
:102F300050EA0102F2D1641C039AC4F11103144453
:102F4000119A012A03D0012208430DD10AE0084357
:102F500004D000204FF0110B119072E7A3EB0B058A
:102F60006D1E0DE05B4504DD4FF0000205F101052B
:102F700004E003DA4FF00002A5F10105002AECD0CD
:102F800002981199C0E90231C0E9004579E70000D3
:102F9000000014400000F03F300000000000F0434B
:102FA0000000E03F2DE9FF4F95B09B46894606465D
:102FB00000250FE2252877D100242746F84A012171
:102FC000059400E0044316F8013F203B01FA03F0AA
:102FD0001042F7D130782A2811D06FF02F033078C3
:102FE000A0F13002092A16D8059A44F0020402EB37
:102FF000820203EB42021044761C0590EFE759F879
:10300000042B0592002A03DA504244F40054059040
:1030100044F00204761C30782E2816D116F8010FE1
:1030200044F004042A280DD06FF02F023078A0F16C
:103030003003092B09D807EB870302EB4303C718BA
:10304000761CF3E759F8047B761C30786C280FD097
:1030500006DC4C2817D068280DD06A2814D104E06B
:10306000742810D07A280FD10DE044F400140AE03F
:1030700044F4801401E044F440147278824202D196
:1030800004F58014761C761C307866280BD013DC8F
:10309000582877D009DC002875D04528F6D0462876
:1030A000F4D047281AD19DE118E0632835D0642870
:1030B00079D0652812D195E1702873D008DC672893
:1030C000F1D069286FD06E280DD06F2806D1B5E0F9
:1030D00073282CD0752875D0782874D05A46179943
:1030E00090476D1C75E1C4F30250022809D00328F3
:1030F0000DD0D9F8001004280DD00D6009F1040995
:1031000067E1D9F80010EA17C1E90052F6E7D9F8EB
:1031100000100D80F2E70D70F0E719F8041B8DF830
:10312000001000208DF80100EA46012003E059F864
:1031300004AB4FF0FF3061074FF0000102D40DE007
:1031400008F101018846B9420FDA8045F8DB1AF828
:1031500008100029F4D108E008F1010188468142F5
:10316000FADB1AF808100029F6D105985B46A0EBA7
:10317000080721463846179A00F094FA284400EBD5
:10318000080507E04DE029E10DE01AF8010B5A4669
:1031900017999047B8F10108F7D25B4621463846A7
:1031A000179A13E142E00A220092C4F302524FF050
:1031B000000A022A08D059F804CB032A4FEAEC711E
:1031C0000AD00DE029E02AE009F1070121F0070209
:1031D000F2E802C1914609E00FFA8CFC4FEAEC716B
:1031E000042A03D14FFA8CFC4FEAEC71002907DA6C
:1031F0000A460021DCF1000C61EB02012D2202E005
:10320000220504D52B228DF80420012203E0E207D9
:1032100001D02022F7E7904659E00A2102E010226F
:103220000DE010214FF0000A00910BE010224FF04A
:10323000000A44F004040827009203E008224FF03B
:10324000000A0092C4F30252022A05D059F804CBB6
:103250000021032A08D009E009F1070121F0070243
:10326000F2E802C1914605E01FFA8CFC042A01D164
:103270000CF0FF0C4FF00008220728D5702806D06C
:10328000009B83F0100353EA0A0305D00EE04022AE
:103290008DF80420012208E05CEA010206D0302209
:1032A0008DF804208DF8050002229046009B83F0E3
:1032B000080353EA0A030AD15CEA010201D162075A
:1032C00005D530228DF804204FF001087F1E5828C4
:1032D00004D034A003900EA802900DE036A0F9E7C8
:1032E00053466046009AFDF705FA84460398825CCF
:1032F0000298401E029002705CEA0100F0D1029830
:1033000006A9081A00F1200A600702D524F48034C7
:1033100000E00127574502DDA7EB0A0000E000208E
:1033200000EB0A01009005984144401A0590E00323
:1033300006D45B462146179A059800F0B3F9054478
:10334000002706E001A85A46C05D179990476D1CFA
:103350007F1C4745F6DBE0030CD55B462146179AF8
:10336000059800F09FF9054404E030205A4617996B
:1033700090476D1C0099481E00900029F5DC08E07C
:10338000029802995A460078491C02911799904771
:103390006D1CBAF10001AAF1010AF1DC65E100003F
:1033A000092801003031323334353637383961621B
:1033B00063646566000000003031323334353637DF
:1033C00038394142434445460000000000F058F9B6
:1033D0000544761C307800287FF4ECAD19B02846FF
:1033E000BDE8F08F620700D4062709F1070222F03A
:1033F000070CFCE80223E14603F000485FEA080CF2
:1034000002D00FF2702C0DE05FEA045C02D50FF2DF
:10341000682C07E05FEAC47C02D00FF2602C01E068
:10342000AFF2700C4FF0FF3823F00043CDF850C0DE
:1034300065280CD006DC452809D046281DD0472831
:103440003DD13DE0662818D067287ED138E00021C4
:10345000112F01DB112000E0781CCDE9000106A945
:103460000EA8FFF7DDFCDDE90F010E9A03910021A4
:10347000009207F1010A04914DE04FF000400097DF
:10348000CDE9011006A90EA8FFF7CAFCDDE90F027D
:1034900003920E9B11990022DDF80CA00093049278
:1034A00011B9791C00EB010AB7EB0A0004D4C0F192
:1034B000FF3007F1010A0490AAEB0700019044E0F5
:1034C000012F00DA01270021112F01DD112000E07A
:1034D0003846CDE9000106A90EA8FFF7A1FCDDE9F9
:1034E0000F010E9A0391002104910092BA46210720
:1034F0000CD40399514500DA8A46BAF1010F05DD73
:10350000009AAAF10101515C302908D0B84202DAD0
:1035100010F1040F06DA0121CDE9011015E0AAF13E
:103520000101E9E7002805DC049901440491AAEBB4
:10353000000102E0411C514500DD8A460499401A11
:10354000401C01904FF000400290200704D40198E5
:10355000504501DBCDF8048000208DF84F00029823
:103560000DF14F07B0F1004F25D02B200E9002989F
:103570004FF0020800280CDA404202902D200E90F5
:1035800007E00A210298FDF79FF83031029007F812
:10359000011DB8F10001A8F10108F2DC0298002831
:1035A000EFD1791E0E980870307800F0200040F0BE
:1035B000450007F8020D12A8C01B00F10708149877
:1035C000007800B1012000EB0A01019801EBE071E5
:1035D00005984144401A401E0590E00306D45B461E
:1035E0002146179A059800F05DF805441498007874
:1035F00018B15A46179990476D1CE00324D55B46D5
:103600002146179A059800F04DF805441CE00498EF
:10361000002807DBDDE90301884203DD0098405CF8
:10362000179901E0179930205A469047049805F100
:103630000105401C04900198401E019004D12E20E9
:103640005A46179990476D1CBAF10001AAF1010A78
:10365000DDDC05E017F8010B5A46179990476D1C01
:10366000B8F10001A8F10108F4DC5B462146179A85
:103670000598ABE62D0000002B00000020000000A4
:103680002DE9F041044600251E461746880404D45F
:1036900005E039462020B0476D1C641EF9D5284648
:1036A000BDE8F0812DE9F041044600251E46904614
:1036B000C80301D5302700E02027880404D505E0A1
:1036C00041463846B0476D1C641EF9D52846BDE812
:1036D000F08100002DE9FE4F06460F4600256846A2
:1036E00001F0CEF9002442E056F8240057F82410E7
:1036F000A0EB010ABAF1000F01DB514601E0CAF16B
:1037000000010846FCF761FF83464FF08F41FCF74C
:1037100005FE80465DF824000021FCF7C1FF16D0AD
:103720005DF824104046FCF7F9FD82464FF07E51CB
:10373000FCF7BCFD814629F0004A0F48416A50461B
:10374000FCF7B8FF12D20120A04005430EE00A4862
:10375000C1694046FCF7A4FF05D30748016A40460B
:10376000FCF7A8FF02D20120A0400543641C032CF3
:10377000BADB2846BDE8FE8FC06300082DE9F04D96
:103780008D4F21F0004A86B005460C46BA452ADB2B
:10379000AAEB070028430AD08848824501DC1AD1E9
:1037A000CDB106B02846BDE8F04DFFF710BB844A06
:1037B000844B2846FCF797FE07460E46824A834B09
:1037C00028462146FCF78FFE06B03A463346BDE850
:1037D000F04DFCF7E1BD0120FFF71CFB06B0BDE892
:1037E000F04DFFF7F9BA7A48824542DABAF1795FCB
:1037F0000BDA2846FFF782FA042808BFFFF7F2FA2F
:10380000284606B02146BDE8F08D2A460B461046F4
:10381000FCF769FE834602466E480E460B460621BB
:103820007844FFF77FFA5A463346FCF75CFE804641
:1038300069488A465A46334604217844FFF772FAAB
:103840005A463346FCF74FFE00223B46FCF7A4FDE8
:1038500002460B4640465146FDF732F82A462346BB
:10386000FCF741FE06B02A462346BDE8F04DFCF7C2
:1038700093BD284624F0004100223D463B46FCF71C
:103880002FFE4FF0FF32FDF78AF8064602465348F6
:103890000F460B4606217844FFF744FA32463B4672
:1038A000FCF721FECDE900014D4832463B4604219C
:1038B0007844FFF737FA32463B46FCF714FE002205
:1038C0002B46FCF769FD834602913046394602F0EB
:1038D0003DFD804643480D46504517DCDDE90001BB
:1038E0005A46029BFCF7ECFF42462B46FCF7FBFDD9
:1038F00042462B46FCF750FD0122FDF750F8304AB6
:10390000304BFCF7EAFD304A304B4CE04FF0000AF8
:1039100052460B464046FCF73FFDCDE903105246A8
:103920002B4610461946FCF7DEFD32463B46FCF7B7
:10393000D7FDDDE90332FCF7C3FF06460F46DDE99C
:1039400000015A46029BFCF7BBFF8346009101220F
:1039500030463946FDF723F8194A1A4BFCF7C0FDEB
:1039600006460F46012240462946FDF718F85A46FA
:10397000009BFCF7B8FD32463B46FCF7AEFD064621
:103980000F46012250462946FDF709F80E4DDFF893
:1039900058802A464346FCF7A3FD32463B46FCF7D7
:1039A0009FFD2A464346FCF79BFD002CD8BF81F0C3
:1039B000004106B0BDE8F08D0000F03F0000F07F50
:1039C000075C143326A6913C182D4454FB21F93F83
:1039D0000000E03FBC370000D2370000463700004F
:1039E0005C3700003333EF3FFB21E93F2DE9F84F0F
:1039F00004460D4621F0004000917349814211DCDC
:103A00007249884201DC06D12CB120462946BDE826
:103A1000F84FFFF7DCB96E48002DCCBF6D496E49F9
:103A2000BDE8F88F6D49814211DD6D498142D8BFF3
:103A30004FF0FF366DDD20462946FFF75FF9042879
:103A400008BFFFF7CFF920462946BDE8F88F654942
:103A5000654F25F00045814233DD6449814219DD1F
:103A6000002632464FF0804320462946FCF794FC5E
:103A700080468A46012220462946FCF790FF002214
:103A80003B46FCF72AFD42465346FCF719FF044625
:103A90000D463EE001260022BA463B462046294616
:103AA000FCF77AFC80460F46002253462046294602
:103AB000FCF713FD42463B46FCF702FF04460D4669
:103AC00027E04B4981421BDDDFF828A102260022B6
:103AD000534620462946FCF706FD00223B46FCF7EC
:103AE0005BFC80460F460022534620462946FCF7E1
:103AF000F4FC42463B46FCF7E3FE04460D4608E074
:103B0000032622462B4600203B49FCF7D9FE0446FB
:103B10000D4622462B4610461946FCF7E4FC8B4620
:103B2000824602460B46FCF7DEFC07460246334857
:103B300088460B4606217844FFF7F4F852465B4668
:103B4000FCF7D1FC82462E488B463A464346052177
:103B50007844FFF7E7F83A464346FCF7C4FC0246D0
:103B60000B46002E504659460CDAFCF715FC22464F
:103B70002B46FCF7B8FC01B022462B46BDE8F04FBF
:103B8000FCF7AEBCFCF708FC22462B46FCF7ABFC6E
:103B90001C4A7A4402EBC603D3E90023FCF79DFCE0
:103BA00022462B46FCF799FC174A7A4402EBC603DF
:103BB000D3E90023FCF794FC009A002AB8BF81F0F7
:103BC0000041BDE8F88F0000000010440000F07FC5
:103BD000182D4454FB21F93FFB21F9BF0000DC3FC5
:103BE0000000203E0000F33F0000F03F0000E63FF1
:103BF000008003400000F83F0000F0BF5E35000089
:103C00001C350000BA340000823400002DE9F04D6C
:103C10009446CCF1000423F000464CEA0404524FD1
:103C200046EAD4749A46884621F00042BC4206D83F
:103C3000454240EA050442EAD474BC4204D9BDE8D6
:103C4000F04D6246FFF7C6B8AAF14055A5F17F6571
:103C500055EA0C040BD0022404EAAA74434DDFF8A1
:103C600010E144EAD87452EA000B04D00CE0BDE83D
:103C7000F04DFFF7BBBE002C14BF012CBDE8F08D4A
:103C8000022C30D0032C32D056EA0C0B0AD0BE42A4
:103C900020D1BA4209D126F0804622F08042334634
:103CA000114617E000291ADB25E0DFF8C8B0FB4415
:103CB000002C04BFDBE90001BDE8F08D012C02BF40
:103CC000DBE9000181F00041BDE8F08D022C0AD053
:103CD000032C0CD0BA4212D1B8F1000F0BDA2348F2
:103CE0002549BDE8F08D28462449BDE8F08D2846D9
:103CF0007146BDE8F08D1D482149BDE8F08D921B4D
:103D000012153C2AC4BF19481D490EDCBAF1000F38
:103D1000BEBF12F13C0F0020014606DB6246FCF7F5
:103D2000CFFD21F00041FFF761FE002C08BFBDE888
:103D3000F08D012C04BF81F00041BDE8F08D114AE7
:103D4000114B022C07D0FCF7C8FB2A46BDE8F04D0A
:103D50000A4BFCF7C2BBFCF7C0FB2A46BDE8F04D9E
:103D6000064BFCF7BDBB00000000F07F182D44544B
:103D7000FB2109C016340000FB21F9BFFB210940DB
:103D8000FB21F93F075C143326A6A13C2DE9F04145
:103D90000446E07800F0C006E07800F03F05607867
:103DA00000F0010098B1EF102846E91705EB5171BA
:103DB000C910A5EBC101491C01F0FF080B480068C0
:103DC00020B10A48414602683846904700BF6078F3
:103DD00000F0080030B10548406818B1B011034A3E
:103DE000516888470020BDE8F0810000B80000203D
:103DF0004FF0E021096921F004014FF0E022116148
:103E0000C21700EB5272C2F3C702074B1A70194671
:103E1000097801EB4102C2EBC1114FF6FF7202EAD1
:103E2000C101024A1180704760000020620000203A
:103E300001460D4A12884A434FF0E0235A6100229E
:103E40009A6101221A6100BF4FF0E022106900F070
:103E500001021AB100F48032002AF5D000224FF09E
:103E6000E0231A619A6170476200002001460D4A02
:103E700012784A434FF0E0235A6100229A610122EE
:103E80001A6100BF4FF0E022106900F001021AB180
:103E900000F48032002AF5D000224FF0E0231A61AE
:103EA0009A6170476000002038B5044664B1202054
:103EB0008DF8000028208DF8010030208DF80200D8
:103EC00038208DF8030004E0A32204216846FCF7A3
:103ED0007CF96A46042140F69E2002F04FF901F079
:103EE0003FFD38BD3EB5044602208DF80000CA20D3
:103EF0008DF80100E3208DF8020009208DF8030001
:103F00006A460421682002F039F9A3208DF80000E8
:103F100004F0400048B1C0208DF80100C8208DF8A1
:103F20000200C2208DF8030006E0A3208DF80100F6
:103F30008DF802008DF8030004F4C07048B1C4206D
:103F40008DF80400CC208DF80500C6208DF8060001
:103F500006E0A3208DF804008DF805008DF806001A
:103F6000A3208DF807008DF808008DF809006A4637
:103F70000A2140F6A72002F001F904F0030018B16D
:103F800020208DF8000002E0D8208DF800006A465D
:103F9000012140F6B62002F0F1F804F0200018B13B
:103FA000012000F0ADF802E0002000F0A9F804F4D0
:103FB000C07008B304F4807060B1B2208DF80000C6
:103FC0008B208DF80100B6208DF802009B208DF823
:103FD00003000BE0B0208DF8000080208DF8010078
:103FE000B4208DF8020090208DF803006A46042169
:103FF00040F6A22002F0C2F804F0010020B3F8203D
:104000008DF800006A4601214FF40B6002F0B6F80B
:10401000FA21072000F02CFC072000F0F3FB012020
:1040200000F013FC642000F0F3FC4FF4FA7000F091
:1040300002FDC821304800F0A3FB282000F0BCFBA3
:104040000A2000F0CCFB08E0D8208DF800006A467A
:1040500001214FF40B6002F091F804F0020018B156
:10406000D9208DF8000002E0D8208DF800006A46C3
:10407000012140F23D7002F081F804F0040018B113
:10408000012000F069F802E0002000F065F804F07B
:10409000100018B10120FFF707FF02E00020FFF732
:1040A00003FF44F008001549488101F059FC002045
:1040B0001249887304F0400018B10846807B801DC7
:1040C000887304F4C07020B10C48807B801D0B49BC
:1040D000887304F0140020B10848807B1030074931
:1040E000887304F0030020B10448807B001D03495D
:1040F000887300203EBD000009E3CA02B80000201A
:104100003EB504466CB10EA1D1E900208968CDE925
:10411000002002916A4609214FF4976002F02EF8C0
:104120003EBD0AA2D2E900109268CDE901020091D9
:104130006A4609214FF4976002F020F8F0E700008A
:10414000B8AAB38DB4980D355D000000B8AAAAAA2C
:10415000B088C3C5C700000038B5044664B1C020AC
:104160008DF80000C2208DF80100C4208DF80200F7
:10417000C6208DF8030004E08B2204216846FCF77A
:1041800024F86A46042140F6982001F0F7FF01F078
:10419000E7FB38BD10B5C8234FF48062024940F6F2
:1041A000F63001F071FA10BDE86300082DE9F04F18
:1041B0008DB00746884615469946DDE9166B002402
:1041C000002030806B49887B5A4605A901F028FB06
:1041D00018B1601E0DB0BDE8F08F6648807A00F01F
:1041E0001400002867D09DF8140000069DF81510F3
:1041F00040EA01409DF8161040EA01209DF8171092
:10420000084328609DF8180000069DF8191040EA40
:1042100001409DF81A1040EA01209DF81B10084348
:1042200068609DF81C0000069DF81D1040EA0140E2
:104230009DF81E1040EA01209DF81F100843A86059
:104240009DF8200000069DF8211040EA01409DF8ED
:10425000221040EA01209DF823100843E86004F191
:104260001000C4B22868001401906868001402901D
:10427000A86800140390E868001404900198404373
:10428000029901FB0100039901FB0100049901FB64
:10429000010ABAF1706F02DBBAF1885F05DD01F047
:1042A0005FFB00203080401E94E7B6F9000040F428
:1042B0008070308000BF2F48807A00F0400020B32B
:1042C00005A9601C085C095D40EA012000B2A8F85D
:1042D000000005A9E01C095C05AAA01C105C41EACD
:1042E000002000B2A8F8020005A9601D095C201D8D
:1042F000105C41EA002000B2A8F80400A01DC4B27E
:10430000B6F9000040F0080030801A48408900F4F7
:10431000C07008B305A9601C085C095D40EA012073
:1043200000B2388005A9E01C095C05AAA01C105C3D
:1043300041EA002000B2788005A9601D095C201DBB
:10434000105C41EA002000B2B880A01DC4B2B6F9EA
:10435000000040F0700030800648807A00F00300D2
:1043600018B105A90819FFF711FD484601F046FFED
:1043700000202FE7B800002070B588B0064601A8DD
:1043800000F0D6FFBDF804000021C90341EA504502
:10439000C4034448007A00F0030056F8200005905A
:1043A0004048007A00F0040010B1059840420590A2
:1043B0003C48007AC0F3C10056F820000690394806
:1043C000007A00F0200010B106984042069035486F
:1043D000007AC0F3811056F8200007903148008918
:1043E00000F4807010B10798404207900598C117FB
:1043F000A0FB042301FB043100FB0510810041EA0E
:10440000927005900698C117A0FB042301FB0431AC
:1044100000FB0510810041EA927006900798C117D1
:10442000A0FB042301FB043100FB0510810041EADD
:10443000927007900598000E8DF808000598000C02
:104440008DF809000598000A8DF80A000598C0B299
:104450008DF80B000698000E8DF80C000698000CE5
:104460008DF80D000698000A8DF80E000698C0B26F
:104470008DF80F000798000E8DF810000798000CBB
:104480008DF811000798000A8DF812000798C0B245
:104490008DF8130002AA0C214FF4257001F06EFE76
:1044A00008B070BDB800002030B585B0044616A233
:1044B00007CA02AB07C3C82C03DD4FF0FF3005B0BD
:1044C00030BDC82090FBF4F0401E85B2280A8DF85C
:1044D0000000E8B28DF801006A46022140F2162081
:1044E00001F04CFE10B14FF0FF30E8E702AA0C21BA
:1044F00040F6C12001F042FE10B14FF0FF30DEE780
:10450000044884810020DAE7FEF2ABC4AAF1DFDFC1
:10451000BBAFDFDFB80000201FB504464848007A73
:1045200000F0030054F8200001904548007A00F0A4
:10453000040010B10198404201904148007AC0F354
:10454000C10054F8200002903D48007A00F020009D
:1045500010B10298404202903948007AC0F38110AD
:1045600054F8200003903648008900F4807010B1A0
:104570000398404203903349019880FB0101800F6A
:1045800040EA810001902F49029880FB01108200CF
:1045900042EA917002902B49039880FB011082003F
:1045A00042EA917003900198000E8DF80000019886
:1045B000000C8DF801000198000A8DF802000198A6
:1045C000C0B28DF803006A4604214FF4747001F004
:1045D000D5FD18B14FF0FF3004B010BD0298000EA9
:1045E0008DF800000298000C8DF801000298000A76
:1045F0008DF802000298C0B28DF803006A460421CB
:104600004FF4757001F0BAFD10B14FF0FF30E3E7E1
:104610000398000E8DF800000398000C8DF801003F
:104620000398000A8DF802000398C0B28DF80300C9
:104630006A4604214FF4767001F0A0FDCCE700003B
:10464000B800002009E3CA0210B586B0044647A0AE
:104650000068039046A00068029046A000680190A0
:1046600045A00068009004F0030003A9085C8DF8E1
:10467000140003A8C4F3C101405C8DF8150003A821
:10468000C4F38111405C8DF8160004F0030002A908
:10469000085C8DF8100002A8C4F3C101405C8DF8DD
:1046A000110002A8C4F38111405C8DF8120005AA24
:1046B000032140F2264001F061FD18B14FF0FF30B8
:1046C00006B010BD04AA032140F22A4001F056FDB5
:1046D00010B14FF0FF30F3E7019805900098049077
:1046E00004F0040058B19DF8140040F001008DF86A
:1046F00014009DF8100040F001008DF8100004F047
:10470000200058B19DF8150040F001008DF815000B
:104710009DF8110040F001008DF8110004F4807044
:1047200058B19DF8160040F001008DF816009DF874
:10473000120040F001008DF8120005AA03214FF489
:10474000886001F01BFD10B14FF0FF30B8E704AAFC
:10475000032140F2314001F011FD10B14FF0FF3064
:10476000AEE7064804810020AAE700004CCD6C00AB
:104770000CC92C003656760026466600B80000208C
:10478000F8B505460E464FF47A7095FBF0F000FB45
:1047900006F4200E8DF80000200C8DF80100200A90
:1047A0008DF80200E0B28DF803006A4604214FF450
:1047B000AE7001F0E3FCF8BD38B50446052094FB6B
:1047C000F0F084B220128DF80000E0B28DF8010004
:1047D0006A4602214FF4AD7001F0D0FC38BD38B507
:1047E0000446052094FBF0F084B220128DF80000FE
:1047F000E0B28DF801006A4602214FF4AC7001F07E
:10480000BDFC38BD38B504460020009004F001001E
:1048100020B19DF8000040F03000009004F002004C
:1048200020B19DF8000040F00C00009004F004005E
:1048300020B19DF8000040F0030000906A4601217D
:104840004FF4A47001F09AFC38BD38B50446012C31
:1048500001DA012402E0042C00DD0424601EC0B251
:1048600000906A46012140F24F1001F087FC38BDEC
:104870002DE9FC4706460F4606F0070010B1B7F5D4
:10488000C86F03DD4FF0FF30BDE8FC873846FBF70B
:10489000A5FE81465949FBF741FD8046684600F078
:1048A00021FD9DF80000022806D0042816D0082813
:1048B00026D0102848D135E04FF08D414046FBF717
:1048C000FBFC8146FBF7A8FE84B24D494046FBF74E
:1048D000F3FC8146FBF7A0FE85B238E04FF08C4137
:1048E0004046FBF7E9FC8146FBF796FE84B245495A
:1048F0004046FBF7E1FC8146FBF78EFE85B226E0E1
:104900004FF08B414046FBF7D7FC8146FBF784FE16
:1049100084B23D494046FBF7CFFC8146FBF77CFE65
:1049200085B214E04FF08A414046FBF7C5FC814652
:10493000FBF772FE84B235494046FBF7BDFC814669
:10494000FBF76AFE85B202E04FF0FF309CE700BF44
:1049500020128DF80400E0B28DF8050028128DF8C1
:104960000600E8B28DF8070006F00100A0B101AA28
:1049700002214FF4EA7001F001FC10B14FF0FF305A
:1049800082E70DF1060202214FF4927001F0F6FB6E
:1049900010B14FF0FF3077E706F00200A0B101AA96
:1049A00002214FF4EC7001F0E9FB10B14FF0FF3041
:1049B0006AE70DF1060202214FF4947001F0DEFB6C
:1049C00010B14FF0FF305FE706F00400A0B101AA7C
:1049D00002214FF4EE7001F0D1FB10B14FF0FF3027
:1049E00052E70DF1060202214FF4967001F0C6FB6A
:1049F00010B14FF0FF3047E7002045E70000484383
:104A0000000040460000C045000040450000C04492
:104A100038B50446052094FBF0F085B228128DF8D5
:104A20000000E8B28DF801006A4602214FF4EF70F1
:104A300001F0A4FB38BD38B50446052094FBF0F026
:104A400085B228128DF80000E8B28DF801006A46A0
:104A500002214FF4ED7001F091FB38BD70B50446B2
:104A60000D46E1B20548FEF733F900BF8021034847
:104A7000FEF790F80028F9D0204670BD00380140BC
:104A80007CB5054628494968087801AB04220D2108
:104A900000F010FB08B107207CBD9DF80700C0F3B3
:104AA00001109DF8041001F0E00140EAE1008DF8EA
:104AB00000009DF80700C0F381009DF8051001F08B
:104AC000E00140EAE1008DF801009DF8070000F0E8
:104AD00003009DF8061001F0E00140EAE1008DF8C6
:104AE000020000241CE01DF8040018B9002045F85D
:104AF000240013E00D4845F8240006E055F8240092
:104B00000B49FBF7D9FB45F824001DF80400401EB3
:104B1000C0B20DF804000028F0D100BF601CC4B280
:104B2000032CE0DB0020B7E7340000207B14AE3E0E
:104B30001D5A843F2DE9F04F87B005460C4691463B
:104B400001208DF8100000208DF81100FE4A126837
:104B5000917CFD4A5268107804AB022200F0E5FA1D
:104B600020B14FF0FF3007B0BDE8F08FC820FFF74D
:104B70005FF900208DF81000F34A1268D17BF24AE9
:104B80005268107804AB012200F0CFFA10B14FF058
:104B9000FF30E8E7EC4A12685179EB4A5268107826
:104BA00004AB012200F0C1FA10B14FF0FF30DAE798
:104BB000E54A1268917CE44A5268107804AB0122FD
:104BC00000F0B3FA10B14FF0FF30CCE7DE4A1268C4
:104BD000D17DDD4A5268107804AB012200F0A5FABD
:104BE00010B14FF0FF30BEE7D74A12681179D64AAC
:104BF0005268107804AB012200F097FA10B14FF020
:104C0000FF30B0E70C208DF81000CF4A1268117900
:104C1000CD4A5268107804AB012200F086FA10B138
:104C20004FF0FF309FE70F20FFF702F9C648806A78
:104C3000407A8DF81000C44A12689178C24A5268CE
:104C4000107804AB012200F070FA10B14FF0FF3081
:104C500089E7BD48806A007A8DF81000BA4A126868
:104C60005178B94A5268107804AB012200F05DFA1D
:104C700010B14FF0FF3076E7B9F1000F07D0B2481E
:104C8000806A807A40F0E0008DF8100004E0AE48C1
:104C9000806A807A8DF81000AB4A12689179AA4A2E
:104CA0005268107804AB012200F03FFA10B14FF0C7
:104CB000FF3058E7B9F1000F07D0A348806AC07AE7
:104CC00040F0E0008DF8100003E0A048C07A8DF8B5
:104CD00010009D4A1268D1799B4A5268107804AB43
:104CE000012200F022FA10B14FF0FF303BE7B9F19A
:104CF000000F02D0C820FFF79BF840208DF810006D
:104D0000914A12681179904A5268107804AB0122D6
:104D100000F00BFA10B14FF0FF3024E778208DF847
:104D20001000894A12685179874A5268107804AB9A
:104D3000012200F0FAF910B14FF0FF3013E7834978
:104D40008889FFF775F800208DF810007E4A1268F8
:104D500051797D4A5268107804AB012200F0E5F9E0
:104D600010B14FF0FF30FEE6774A1268917A764A2A
:104D70005268107804AB022200F09CF910B14FF099
:104D8000FF30F0E69DF811009DF8101040EA012B6D
:104D90000C209BFBF0F0C6B20020A8606860286081
:104DA000A06060602060824665E0674A1268D17A40
:104DB000654A5268107804AB0C2200F07BF910B100
:104DC0004FF0FF30CFE69DF811009DF8101040EA3B
:104DD000012000B2ADF808009DF813009DF81210F4
:104DE00040EA012000B2ADF80A009DF815009DF8D8
:104DF000141040EA012000B2ADF80C00BDF9081013
:104E0000206808442060BDF90A10606808446060AA
:104E1000BDF90C10A0680844A0609DF817009DF82B
:104E2000161040EA012000B2ADF800009DF819000C
:104E30009DF8181040EA012000B2ADF802009DF87C
:104E40001B009DF81A1040EA012000B2ADF80400E2
:104E5000BDF90010286808442860BDF90210686890
:104E600008446860BDF90410A8680844A8600AF105
:104E7000010000F0FF0AB24597DB3448D0F800C0CB
:104E80002868C117090441EA10410704624600235B
:104E90003846FBF769F932460023CDE90201FBF7FA
:104EA00063F928602948D0F800C06868C117090470
:104EB00041EA10410704624600233846FBF754F9E3
:104EC00032460023CDE90201FBF74EF968601F4826
:104ED000D0F800C0A868C117090441EA10410704CE
:104EE000624600233846FBF73FF932460023CDE9FE
:104EF0000201FBF739F9A8601448D0F804C0216812
:104F0000C817000440EA11480F04624600233846DF
:104F10004146FBF729F932460023CDE90201FBF7B0
:104F200023F920600948D0F804C06068C11709045B
:104F300041EA10410704624600233846FBF714F9A2
:104F40003246002304E0000034000020C063000863
:104F5000CDE90201FBF708F960601148D0F804C000
:104F6000A068C117090441EA104107046246002302
:104F70003846FBF7F9F832460023CDE90201FBF78A
:104F8000F3F8A060A068002804DDA068A0F58030D8
:104F9000A06003E0A06800F58030A0600020E2E59A
:104FA000C06300082DE9FC5F06460F4600253D4919
:104FB0004968087801AB03220D2100F07BF810B19D
:104FC0000720BDE8FC9F9DF8040000F01F008DF84D
:104FD00004009DF8050000F01F008DF805009DF805
:104FE000060000F01F008DF80600002456E056F879
:104FF000240057F82410A0EB010BBBF1000F01DBDC
:10500000594601E0CBF100010846FBF7DEFA4FF00C
:105010008F410090FBF782F9814601A8005D68B3DB
:1050200021490868FBF7DAFA834659461F48FBF71F
:1050300075F9804604E01E494046FBF73DF980467D
:1050400001A8005D401EC0B201A908550028F2D198
:1050500041464846FBF762F983464FF07E51FBF725
:1050600025F982462AF0004B0F4881695846FBF724
:1050700021FB12D20120A04005430EE00A4801693D
:105080004846FBF70DFB05D3074841694846FBF747
:1050900011FB02D20120A0400543641C032CA6DBB7
:1050A00028468EE734000020C063000800B04C455D
:1050B00054E3853F2DE9F04106460F4614461D4650
:1050C000FCF756FD10B90120BDE8F0817106080E0D
:1050D000FCF71CFDFCF7A4FD18B9FCF77DFD0120D1
:1050E000F2E73846FCF712FDFCF79AFDFCF740FDAD
:1050F000012101EB4601C8B2FCF708FDFCF790FD69
:105100000DE0012C04D10020FCF7C8FC287003E05E
:105110000120FCF7C3FC28706D1C601EC4B2002C7B
:10512000EFD1FCF759FD0020CEE72DE9F04105460F
:105130000E4617469846FCF71BFD10B90120BDE846
:10514000F0816906080EFCF7E1FCFCF769FD18B96F
:10515000FCF742FD0120F2E73046FCF7D7FCFCF7F4
:105160005FFD00240BE018F80400FCF7CFFCFCF70F
:1051700057FD18B9FCF730FD0020E0E7641CBC4285
:10518000F1DBFCF729FD0020D9E770B5054628467C
:1051900000F00FF80446E81C00F00BF844EAC000E9
:1051A00084B2A81D00F005F844EA801084B22046BD
:1051B00070BD014691F90020002A01DD00201EE0AB
:1051C00091F90020002A01DA042018E091F9012069
:1051D000002A01DD012012E091F90120002A01DA04
:1051E00005200CE091F90220002A01DD022006E0F2
:1051F00091F90220002A01DA062000E0072070471A
:105200004820FEF7F5FDFBF737FEFCF7A5F8FCF7A5
:10521000C9FDFDF7A7F9FDF775FCFBF751FDFCF79C
:10522000C9F9FBF7EDFDFCF7DDF8FCF72BF9FCF70E
:10523000E1FAFDF777F8FCF79BFAFCF7EFFBFCF7D8
:10524000D1FDFBF707FF0BE0FCF732FF05480068D4
:10525000FBF7F6F9044622460B4603A0FDF73EFD98
:10526000F2E700007400002050697463683D256611
:10527000200A000070B50446002624F001041848F6
:1052800090F8240008B1002070BD1548807A10B94C
:105290004FF0FF30F8E71248057C807A2040104933
:1052A00008740846007CA04202D04FF0FF3600E0B0
:1052B000002614B90A48007D18B1012000F0FEFF55
:1052C00002E0002000F0FAFF3CB100F049FB20B101
:1052D000034805744FF0FF30D6E73046D4E70000AE
:1052E0003400002001461148407A30B1012807D02F
:1052F000022808D003280CD108E0022008700BE037
:105300000420087008E00820087005E010200870EC
:1053100002E04FF0FF30704700BF0448C07C18B176
:1053200008784006000E08700020F4E734000020E2
:1053300001461348407A30B1012808D002280AD02B
:10534000032810D10BE04FF4804008800EE041F6B6
:105350009C7008800AE04FF48050088006E04FF40B
:105360000060088002E04FF0FF30704700BF044843
:10537000C07C10B10888401008800020F5E70000CC
:105380003400002001460248007C0870002070476D
:105390003400002001460F48007A30B1012807D0C0
:1053A000022809D003280FD10AE0FA2008800EE075
:1053B0004FF4FA7008800AE04FF47A70088006E033
:1053C0004FF4FA60088002E00020088000BF00BFB0
:1053D000002070473400002001460E48007A30B1AA
:1053E000012807D0022808D003280CD108E00A4879
:1053F00008600BE00948086008E00948086005E01B
:105400000848086002E04FF0FF30704700BF0020FE
:10541000FBE700003400002000000343000083424B
:10542000333303423333834101461248C07A08289C
:1054300017D2DFE800F01704070A0D101318BC207C
:10544000088013E06220088010E02A2008800DE028
:10545000142008800AE00A20088007E00520088060
:1054600004E000BF00BF0020088000BF00BF002094
:1054700070470000340000200146064890F82400E0
:1054800010B14FF0FF3070470248C08908800020FB
:10549000F9E70000340000201CB580208DF80000E2
:1054A000654A1268917C644A526810786B46012202
:1054B000FFF73BFE10B14FF0FF301CBD6420FEF73C
:1054C000B7FC00208DF800005B4A1268917C5A4AB4
:1054D000526810786B460122FFF727FE10B14FF09B
:1054E000FF30EAE7544A1268917D534A52681078B7
:1054F0006B460622FFF7DEFD10B14FF0FF30DCE710
:105500009DF80500C007400F9DF8031001F0010150
:1055100040EA41009DF8011001F0010140EA010458
:1055200094B1012C03D101214348C17431E0022C14
:1055300003D100214048C1742BE021463FA0FDF774
:10554000CDFB4FF0FF30B8E73B4A1268D1783A4ABA
:10555000526810786B460122FFF7ACFD10B14FF096
:10556000FF30AAE79DF8000000F00F042CB93D4879
:10557000FDF7B4FB4FF0FF309FE7042C06D13AA0B3
:10558000FDF7ACFB01212C48C17402E000212A4840
:10559000C174FF2128488172FF2027490872FF212A
:1055A00025484172C1724FF6FF71C181FF2101741C
:1055B00081740121017380F82210002180F82310EA
:1055C000417501751630016041608160163880F8C0
:1055D000241080F82510C1844FF4FA6000F05CFCC0
:1055E00010B14FF0FF3068E7022000F025FB10B14A
:1055F0004FF0FF3061E72A2000F0C8FC10B14FF0F7
:10560000FF305AE7322000F003FD10B14FF0FF30B9
:1056100053E70020FFF72EFE10B14FF0FF304CE7AC
:10562000002000F04BFB10B14FF0FF3045E70020A9
:1056300000F03CFD002040E734000020556E7375FB
:1056400070706F7274656420736F667477617265D1
:105650002070726F64756374207265762025642EE5
:105660000A000000D070000848616C662073656E07
:105670007369746976697479207061727420666FD9
:10568000756E642E0D0A00002DE9F04385B00546C5
:105690000E4690469946294890F8250020B14FF0D3
:1056A000FF3005B0BDE8F08316B94FF0FF30F8E7E2
:1056B000002423E0281B102801DD102000E0281B17
:1056C00087B232193946204600F058FD10B14FF02C
:1056D000FF30E6E701AA3946204600F001F910B193
:1056E0004FF0FF30DDE730193A4601A9FAF77FFDA8
:1056F00010B16FF00100D4E7E01984B2AC42D9DBFD
:105700004FEA28208DF8000008F0FF008DF8010016
:105710000A4A1268917E094A526810786B46022242
:10572000FFF703FD10B14FF0FF30BAE70121034846
:1057300080F82510A0F826900020B2E73400002061
:1057400038B50446282C02DD4FF0FF3038BDDCB9F7
:10575000002000F0E5FB00208DF8000007208DF808
:1057600001002E4A1268917C2C4A526810786B46D0
:105770000222FFF7DAFC10B14FF0FF30E6E700211C
:10578000264801750020E1E7012000F0C9FB202038
:105790008DF80000012C06D100208DF801000520B5
:1057A00000F0F4FB17E0052C06DC01208DF8010069
:1057B000052000F0EBFB0EE0142C06DC02208DF837
:1057C00001000A2000F0E2FB05E003208DF8010053
:1057D000142000F0DBFB9DF80100072101EB801095
:1057E000C0B28DF801000D4A1268917C0B4A5268D4
:1057F00010786B460222FFF798FC10B14FF0FF3093
:10580000A4E7082105488172002101730121017577
:105810000020FFF72FFD002098E700003400002053
:10582000F8B504460F4616462C4890F8240010B9E7
:105830004FF0FF30F8BD2948807A10B94FF0FF30A3
:10584000F8E7264A1268917A244A526810786B4623
:105850000222FFF72FFC10B14FF0FF30EAE79DF86E
:1058600001009DF8001040EA0125A54203DA00205E
:105870003070401EDEE7194840684088B5EB600F85
:1058800017DD164A1268517C144A526810786B462C
:105890000122FFF70FFC10B14FF0FF30CAE79DF86F
:1058A000000000F0100020B100F05AF86FF0010085
:1058B000C0E7E2B2094B1B68D97A084B5B681878DD
:1058C0003B46FFF7F7FB10B14FF0FF30B2E795FB17
:1058D000F4F0401E30700020ACE7000034000020DF
:1058E000F8B504460D46164616B94FF0FF30F8BD20
:1058F0001A48807A10B94FF0FF30F8E720128DF87F
:105900000000E0B28DF801009DF801002844134921
:1059100049684989884202DD4FF0FF30E7E70F4AC6
:105920001268117E0D4A526810786B460222FFF70A
:10593000FCFB10B14FF0FF30D9E7EAB2074B1B6810
:10594000597D064B5B6818783346FFF7B3FB10B1FF
:105950004FF0FF30CBE70020C9E700003400002003
:1059600008B56D48807A10B94FF0FF3008BD0020AF
:105970000090694A1268D17B674A526810786B467A
:105980000122FFF7D2FB10B14FF0FF30EEE7624A81
:1059900012685179604A526810786B460122FFF70D
:1059A000C4FB10B14FF0FF30E0E75B4A1268117999
:1059B000594A526810786B460122FFF7B6FB10B1C6
:1059C0004FF0FF30D2E7544890F82400002850D020
:1059D0000C200090504A126811794F4A5268107892
:1059E0006B460122FFF7A1FB10B14FF0FF30BDE77E
:1059F000C02000904848807A00F0010020B19DF856
:105A0000000040F020000090434A12681179424A99
:105A1000526810786B460122FFF787FB10B14FF0F8
:105A2000FF30A3E73C48407C10B10220009001E029
:105A300000200090384A1268D17B374A52681078AB
:105A40006B460122FFF771FB10B14FF0FF308DE77D
:105A500000200090304A126851792F4A526810781D
:105A60006B460122FFF761FB002852D04FF0FF3058
:105A70007CE704200090284A12681179264A52686F
:105A800010786B460122FFF750FB10B14FF0FF304A
:105A90006CE72148807C20B91F48807A00F0010023
:105AA00010B94020009001E0602000901A4A12686E
:105AB0001179194A526810786B460122FFF735FBBD
:105AC00010B14FF0FF3051E71348407C10B1012076
:105AD000009001E0002000900F4A1268D17B0E4A2E
