:020000040800F2
:10000000A804002045010008A10E0008AB0C000860
:100010009D0E0008F1050008A91E00080000000060
:10002000000000000000000000000000F1150008C2
:100030009507000800000000810F00083117000834
:100040005F0100085F0100085F0100085F01000810
:100050005F0100085F010008C10700085F01000898
:100060005F0100085F0100085F0100085F010008F0
:100070005F0100085F0100085F0100085F010008E0
:100080005F0100085F0100085F0100085F010008D0
:100090005F0100085F0100085F0100085F010008C0
:1000A0005F0100085F0100085F0100085F010008B0
:1000B000F91900085F010008111A00085F01000823
:1000C0005F0100085F0100085F0100085F01000890
:1000D0005F0100085F0100085F0100085F01000880
:1000E000D30700085F0100085F0100085F010008F6
:1000F0005F0100085F0100085F0100085F01000860
:100100005F0100085F0100085F0100085F0100084F
:100110005F0100085F010008291A00085F0100085C
:100120005F0100085F0100085F0100085F0100082F
:10013000DFF80CD000F04AF80048004775230008AB
:10014000A80400200648804706480047FEE7FEE76F
:10015000FEE7FEE7FEE7FEE7FEE7FEE7FEE7FEE777
:1001600059170008310100082DE9F05F054600200D
:1001700092469B4688460646814640241BE0284618
:1001800041464746224600F042F853465A46C01AB6
:10019000914110D311461846224600F029F82D1A35
:1001A00067EB01084F4622460120002100F020F8AD
:1001B00017EB00094E41201EA4F10104DFDC484684
:1001C00031462A464346BDE8F09F0000064C074DE5
:1001D00006E0E06840F0010394E807009847103417
:1001E000AC42F6D3FFF7A8FF202400084024000803
:1001F000202A04DB203A00FA02F1002070479140E7
:10020000C2F1200320FA03F3194390407047202ADB
:1002100004DB203A21FA02F00021704721FA02F3B0
:10022000D040C2F12002914008431946704721B1E5
:10023000826842F00102826003E0826822F00102DB
:100240008260704721B1826842F48072826003E06C
:10025000826822F4807282607047014600208A68BA
:1002600002F004020AB1012000E0002070470146BC
:1002700000208A6802F008020AB1012000E0002094
:100280007047000030B502460020002350680F4C34
:1002900020400D790C6844EA0524204350609068A2
:1002A0000B4C2040D1E902542C434D7944EA4504DB
:1002B00020439060D06A20F470000C7C641EE4B28D
:1002C000234340EA0350D06230BD0000FFFEF0FF40
:1002D000FDF7F1FFF0B504460D4600200021092D81
:1002E00011DDE068A5F10A0606EB4607072606FAC7
:1002F00007F18843A5F10A0606EB460603FA06F164
:100300000843E0600CE0206905EB4507072606FA84
:1003100007F1884305EB450603FA06F1084320611F
:10032000072A0FDA606B561E06EB86071F2606FAB1
:1003300007F18843561E06EB860605FA06F10843C8
:10034000606322E00D2A0FDA206BD61F06EB8607CA
:100350001F2606FA07F18843D61F06EB860605FA24
:1003600006F10843206310E0E06AA2F10D0606EBF7
:1003700086071F2606FA07F18843A2F10D0606EB51
:10038000860605FA06F10843E062F0BD816841F097
:1003900008018160704721B1826842F4A002826046
:1003A00003E0826822F4A00282607047816841F015
:1003B000040181607047000008B50121102000F0A1
:1003C0000DFE3F20ADF8000000208DF803006946C7
:1003D000014800F0DBFB08BD0010014010B5FFF73D
:1003E000EBFF00F001F810BD00B591B00121084607
:1003F00000F0D4FD0121480200F0F0FD444800F077
:1004000005F94448069044480790002008900620CB
:10041000099000200A9080200B9040000C908000F2
:100420000D9020200E9000020F900020109006A941
:10043000374800F091F90121354800F0DBF8002041
:10044000019001208DF808008DF809004FF460201C
:1004500003900020049006208DF8140001A92D4877
:100460004C38FFF70FFF4FF4404000F08BFD0523A1
:1004700001220A2127484C38FFF72CFF05230222CE
:100480000B2124484C38FFF725FF052303220C21BC
:1004900020484C38FFF71EFF052304220D211D487C
:1004A0004C38FFF717FF05231A460E2119484C3820
:1004B000FFF710FF052306220F2116484C38FFF7DF
:1004C00009FF012113484C38FFF7BCFE01211148F8
:1004D0004C38FFF7ACFE0F484C38FFF757FF00BF12
:1004E0000C484C38FFF7C3FE0028F9D109484C38B6
:1004F000FFF75CFF00BF07484C38FFF7AEFE00284F
:10050000F9D1012103484C38FFF745FF11B000BD78
:10051000080002404C2401409A00002010B500F071
:1005200023F800F001F810BD0EB50121102000F0F5
:1005300045FD40F2E730ADF804004720ADF800007B
:100540006946084801F05EFB0121064801F080FA87
:1005500001221146034801F01EFB0121014801F070
:100560007DFA0EBD0010004008B54FF4E06000F0C9
:10057000FDFC36208DF8000000208DF801000320DE
:100580008DF8020001208DF80300684600F0B6FCEB
:1005900008BD000008B50121042000F01FFD4FF444
:1005A0008070ADF8000010208DF8030003208DF856
:1005B00002006946044800F0E9FA4FF480710248ED
:1005C00000F06FFB08BD00000008014010B50346B5
:1005D00007E018780C78A04201D0002010BD5B1C09
:1005E000491C101EA2F10104A2B2F2D10120F5E7CC
:1005F00000BFFEE721B1026842F00102026004E0A0
:1006000002684FF6FE731A400260704701684FF6A9
:10061000FE72114001600021016041608160C16093
:100620004B49884208D14A490839496841F00F01CD
:10063000474A083A51608AE045491431884208D156
:1006400043490839496841F0F001414A083A51608C
:100650007DE03F492831884208D13D490839496841
:1006600041F470613A4A083A516070E038493C31CF
:10067000884208D136490839496841F47041344A02
:10068000083A516063E032495031884208D130491C
:100690000839496841F470212D4A083A516056E002
:1006A0002B496431884208D129490839496841F405
:1006B0007001274A083A516049E02549783188425B
:1006C00008D123490839496841F07061204A083A45
:1006D00051603CE01F49884206D1011F096841F082
:1006E0000F01021F116032E01A491431884208D10B
:1006F0001849091F096841F0F001164A121F1160DC
:1007000025E014492831884208D11249091F096897
:1007100041F470610F4A121F116018E00D493C311D
:10072000884208D10B49091F096841F47041094A00
:10073000121F11600BE007495031884207D105496B
:10074000091F096841F47021024A121F11607047A5
:10075000080002400804024010B50022026847F673
:10076000F0739A430C6A8B6823430C6923434C69EA
:1007700023438C692343CC6923434C6A23438C6A0B
:1007800023431A430260CB6843600B6883604B6865
:10079000C36010BD7047000001B5084900980860AB
:1007A0004FF0E020006940F001004FF0E0210861C7
:1007B00000BF024800680028FBD108BD600000208F
:1007C00010B5012000F016F810B1012000F00CF86F
:1007D00010BD10B54FF4005000F00CF818B14FF4F4
:1007E000005000F001F810BD01490860704700009A
:1007F00014040140014600200022074B1B6803EA55
:100800000102054B14331B680B4013B10AB10120E0
:1008100000E000207047000000040140002123494F
:100820008279002A3AD00A46126803689A430B4636
:100830001A600A1D126803689A430B1D1A60027938
:1008400011440A6803681A430A60184A0832126899
:1008500003689A43154B08331A601A1D126803681F
:100860009A43124B0C331A604279102A0ED11A1F88
:10087000126803681A430D4B08331A601A1D126878
:1008800003681A43094B0C331A600DE0074942799B
:1008900011440A6803681A430A6005E002791144AA
:1008A0000A6803689A430A60704700000004014028
:1008B0000EB50121052000F091FB00F0F2FA0120B5
:1008C000ADF8080004208DF80B0002A9194800F0CB
:1008D0005DF90021084600F039F901200090002060
:1008E0008DF8040008208DF8050001208DF8060021
:1008F0006846FFF793FF4FF40050ADF8080004205E
:100900008DF80B0002A90C4800F040F90D210220DF
:1009100000F01CF94FF40050009000208DF8040006
:100920000C208DF8050001208DF806006846FFF7C1
:1009300075FF0EBD000801400010014000B587B0F2
:100940000121084600F03AFB0121042000F046FB9B
:100950000320ADF8000004208DF8030069461E480E
:1009600000F014F904A801F09FF90020ADF8100080
:100970004FF6FF70ADF814000020ADF81600ADF88A
:10098000120004A94FF0804001F03CF900231A4600
:1009900003214FF0804001F06DF801A801F0F2F85A
:1009A0000A20ADF80C0001A9400701F095F80121DB
:1009B000880701F04DF801221146900701F0EBF88D
:1009C00000214FF0804001F0EFF80121880701F08D
:1009D00045F807B000BD00000008014000B587B031
:1009E0000121042000F0EAFA0121082000F0F6FAC3
:1009F000C020ADF8000004208DF8030069461C48B3
:100A000000F0C4F804A801F04FF90020ADF8100080
:100A10004FF6FF70ADF814000020ADF81600ADF8E9
:100A2000120004A9134801F0EDF800231A4603212F
:100A3000104801F01FF801A801F0A4F80A20ADF851
:100A40000C0001A90B4801F047F80121094800F00A
:100A5000FFFF01221146074801F09DF800210548DB
:100A600001F0A2F80121034800F0F8FF07B000BD33
:100A7000000C01400008004008B50121042000F0EE
:100A8000ADFA4020ADF8000018208DF803000320D7
:100A90008DF8020069461B4800F078F80121042017
:100AA00000F09CFA8020ADF8000018208DF80300BB
:100AB00003208DF802006946124800F067F8012112
:100AC000082000F08BFA0120ADF8000018208DF806
:100AD000030003208DF8020069460B4800F056F829
:100AE0000121082000F07AFA0220ADF80000182059
:100AF0008DF8030003208DF802006946024800F0DB
:100B000045F808BD00080140000C014010B5FFF792
:100B1000B3FF00F001F810BD0EB50121022000F076
:100B20004DFA0920ADF804004720ADF80000002080
:100B3000ADF80600ADF802008DF8080069460248DD
:100B400001F060F80EBD00000004004030B5002246
:100B50008B071C0F0F2303FA04F20B4B8C1053F876
:100B600024309343084C8D1044F8253023468C10D4
:100B700053F824308C07240F00FA04F42343024C6A
:100B80008D1044F8253030BD080001402DE9F041BA
:100B9000024600250026002000230024002791F8AB
:100BA00003C00CF00F0591F803C00CF0100CBCF161
:100BB000000F03D091F802C04CEA050591F800C07F
:100BC000BCF1000F31D0146800202BE04FF0010C75
:100BD0000CFA00F3B1F800C00CEA03069E4220D1E3
:100BE00083004FF00F0C0CFA03F7BC4305FA03FC2B
:100BF0004CEA040491F803C0BCF1280F06D14FF071
:100C0000010C0CFA00FCC2F814C00AE091F803C011
:100C1000BCF1480F05D14FF0010C0CFA00FCC2F8F2
:100C200010C0401C0828D1D31460B1F800C0BCF13A
:100C3000FF0F34DD546800202EE000F1080C4FF067
:100C4000010808FA0CF3B1F800C00CEA03069E4252
:100C500021D183004FF00F0C0CFA03F7BC4305FAC7
:100C600003FC4CEA040491F803C0BCF1280F05D141
:100C700000F1080C08FA0CF8C2F8148091F803C0CF
:100C8000BCF1480F07D100F1080C4FF0010808FA39
:100C90000CF8C2F81080401C0828CED35460BDE880
:100CA000F081416170470161704700BFFEE721B1EB
:100CB000028842F00102028004E002884FF6FE73CF
:100CC0001A4002807047000010B500F009F800F0EB
:100CD000A3F8A0200149088010BD00006800002092
:100CE00008B50121480500F069F90121082000F04C
:100CF00075F94020ADF8000003208DF802001C209B
:100D00008DF8030069460848FFF740FF8020ADF8E2
:100D1000000003208DF802001C208DF803006946B6
:100D20000148FFF733FF08BD000C01402DE9F043F7
:100D300085B004460D460026B1460427DFF8CC8076
:100D4000A6884FF6C0700640684600F057F9DDF8F7
:100D500008802F48B8FBF0F01FFA80F946EA090630
:100D6000A68020884FF6FE71084020800026294981
:100D7000286888420CD828684000B8FBF0F087B299
:100D8000042F00DA04273E4309F10100208427E004
:100D9000E8884BF6FF71884206D1286800EB4000D6
:100DA000B8FBF0F087B209E0286800EBC00101EB66
:100DB0000010B8FBF0F087B247F48047C7F30B0090
:100DC00008B947F0010747F4004006434FF4967016
:100DD00009FB00F04FF47A7190FBF1F0401C208485
:100DE000A683208840F00100208026884FF6F53049
:100DF0000640A8886989084306432680A88929896E
:100E00000843208105B0BDE8F083000000127A009D
:100E100040420F00A08601001FB50020ADF804007D
:100E20004BF6FF70ADF806000A20ADF808004FF44D
:100E30008060ADF80A000001ADF80C000548009094
:100E400069460548FFF772FF01210348FFF72FFFAE
:100E50001FBD0000801A06000054004008B50121A3
:100E6000142000F0BBF80120ADF8000004208DF83C
:100E7000030069460748FFF789FE4FF40050ADF8BC
:100E8000000004208DF8030069460348FFF77EFE4A
:100E900008BD0000000801400010014000BFFEE74F
:100EA000704708B54FF4C06000F060F806208DF878
:100EB000000001208DF801008DF802008DF803007C
:100EC000684600F01BF828208DF80000684600F006
:100ED00015F808BD08B54FF4A06000F047F82520CC
:100EE0008DF8000001208DF801008DF802008DF8CA
:100EF0000300684600F002F808BD000070B500214C
:100F000000230F22C47804B3154C246804F4E06471
:100F1000C4F5E064210AC1F10403CA40447804FA2C
:100F200003F184781440214309010E4C0678A15541
:100F3000047804F01F050124AC4005786D11AD0064
:100F400005F1E025C5F8004109E0047804F01F052B
:100F50000124AC40044D0678761145F8264070BD5A
:100F60000CED00E000E400E080E100E00249014314
:100F7000024A1160704700000000FA050CED00E025
:100F80007047000001460020034A506820F44040AA
:100F900008435060704700000010024029B1064A23
:100FA00052690243044B5A6104E0034A5269824386
:100FB000014B5A61704700000010024029B1064AF7
:100FC000D2690243044BDA6104E0034AD2698243E6
:100FD000014BDA61704700000010024029B1064A57
:100FE00092690243044B9A6104E0034A9269824386
:100FF000014B9A61704700000010024030B500219B
:101000000022002400232D4D6D6805F00C0121B154
:10101000042905D0082923D105E0294D056022E0E7
:10102000274D05601FE0254D6D6805F47012234DB6
:101030006D6805F48034022505EB92421CB9214D00
:10104000554305600BE01D4D6D6805F400351DB17D
:101050001C4D5543056002E0194D5543056002E003
:10106000174D056000BF00BF144D6D6805F0F0011D
:101070000909154D6B5C0568DD4045600F4D6D68D5
:1010800005F4E061090A104D6B5C4568DD40856040
:101090000A4D6D6805F46051C90A0B4D6B5C4568DB
:1010A000DD40C560054D6D6805F44041890B074D75
:1010B0006B5CC568B5FBF3F5056130BD00100240FF
:1010C00000127A0000093D001400002024000020D6
:1010D00021B1028842F04002028004E002884FF60B
:1010E000BF731A400280704770B505460C4616461D
:1010F00001211048FFF7D5FD032000F0C5F9C4F326
:10110000074000F0C1F9C4F3072000F0BDF9E0B2D8
:1011100000F0BAF904E0FF2000F0B6F928706D1C69
:10112000301EA6F101018EB2F5D101210148FFF771
:10113000BAFD70BD001001402DE9F05F07460E4674
:1011400014464FF00008C146C2460025AB4606F0E3
:10115000FF0ACAF10000C5B22046E11704EB116195
:10116000C1F30728E11704EB11610912A4EB012177
:1011700001F0FF09BAF1000F20D1B8F1000F05D13D
:1011800022463146384600F0C9F864E009E04FF4E1
:1011900080723146384600F0C1F806F5807607F5D2
:1011A0008077B8F10000A8F1010101F0FF08EED14D
:1011B0004A463146384600F0B1F84CE0B8F1000F2D
:1011C00018D1A94510DDA9EB050000F0FF0B2A4658
:1011D0003146384600F0A2F82E442F445A46314694
:1011E000384600F09BF836E022463146384600F09B
:1011F00095F830E0601B84B22046E11704EB1161E2
:10120000C1F30728E11704EB11610912A4EB0121D6
:1012100001F0FF092A463146384600F07FF82E4497
:101220002F4409E04FF480723146384600F076F8DA
:1012300006F5807607F58077B8F10000A8F1010186
:1012400001F0FF08EED1B9F1000F04D04A46314653
:10125000384600F063F8BDE8F09F000000B587B0A5
:1012600001210803FFF7BAFE0121D420FFF7B6FEE3
:101270000120ADF8040003208DF8060010208DF841
:10128000070001A92248FFF781FC2020ADF80400E7
:1012900018208DF8070001A91E48FFF777FC4020B1
:1012A000ADF8040001A91B48FFF770FC8020ADF8E1
:1012B000040001A91748FFF769FC01211448FFF752
:1012C000F2FC0020ADF808004FF48270ADF80A007F
:1012D0000020ADF80C000220ADF80E000120ADF8A2
:1012E00010004002ADF812000820ADF814000020F4
:1012F000ADF816000720ADF8180002A9064800F066
:1013000037F901210448FFF7E3FE07B000BD0000F4
:1013100000100140000801400030014070B5054652
:101320000C46164600F006F901211548FFF7B9FCF6
:10133000022000F0A9F8C4F3074000F0A5F8C4F3B8
:10134000072000F0A1F8E0B200F09EF8B6F5807F2B
:1013500004DD4FF480760BA000F0A8FD03E02878B0
:1013600000F092F86D1C301EA6F101018EB2F6D18C
:1013700001210348FFF797FC00F0C2F870BD0000A0
:10138000001001403C3C2D464C4153482D455252E3
:101390004F522D3E3E205350495F464C4153485FCB
:1013A00050616765577269746520746F6F206C6156
:1013B000726765210A00000010B5002401210C4865
:1013C000FFF76FFCAB2000F05FF8FF2000F05CF847
:1013D000FF2000F059F8FF2000F056F8FF2000F041
:1013E00053F8044601210248FFF75DFC204610BD7A
:1013F000001001402DE9F0410024002500260027BF
:1014000001210F48FFF74DFC9F2000F03DF8FF2021
:1014100000F03AF80546FF2000F036F80646FF20B7
:1014200000F032F8074601210548FFF73CFC28048C
:1014300040EA062040EA07042046BDE8F0810000AB
:101440000010014010B5044600F074F800F058F8A0
:1014500001210C48FFF725FC202000F015F8C4F30B
:10146000074000F011F8C4F3072000F00DF8E0B2D7
:1014700000F00AF801210348FFF715FC00F040F8DE
:1014800010BD00000010014010B504464FF480501C
:10149000194908600AE018490868411E164A116097
:1014A00020B9002000F082F8C0B210BD022113481C
:1014B00000F050F80028EED02146104800F056F811
:1014C0004FF480500C4908600AE00B490868411E3F
:1014D000094A116020B9012000F068F8C0B2E4E7C1
:1014E0000121064800F036F80028EED0034800F04D
:1014F0003AF8C0B2D9E70000640000200030014093
:1015000010B5002401210A48FFF7CBFB0520FFF7A7
:10151000BBFF00BFFF20FFF7B7FF044604F0010048
:101520000028F7D101210248FFF7BDFB10BD0000E4
:101530000010014010B501210548FFF7B2FB06205D
:10154000FFF7A2FF01210248FFF7ADFB10BD00002D
:10155000001001400246002013890B400BB101200E
:1015600000E00020704701468889704781817047FC
:1015700010B50022028802F441520B884C882343A4
:101580008C882343CC8823430C8923434C892343F1
:101590008C892343CC8923431A430280838B4FF2E7
:1015A000FF74234083830B8A038210BD10B5044669
:1015B000214602A000F07AFC002010BD3C3C2D46E4
:1015C0004C4153482D4552524F522D3E3E205350D0
:1015D0004920E7AD89E5BE85E8B685E697B6216581
:1015E00072726F72436F6465203D2025640A0000AB
:1015F000704710B500F002F810BD00000CB50020D7
:10160000019000903348006840F480303149086010
:1016100000BF3048006800F4003000900198401C82
:101620000190009818B90198B0F5A06FF1D1294840
:10163000006800F4003010B10120009001E00020AB
:1016400000900098012843D12348006840F0100022
:10165000214908600846006820F003000860084639
:10166000006840F0020008601A4840681949486064
:101670000846406848600846406840F4806048601A
:101680000846406820F47C1048600846406840F4F2
:10169000E81048600846006840F08070086000BFAD
:1016A0000C48006800F000700028F9D00948406834
:1016B00020F00300074948600846406840F00200F7
:1016C000486000BF0348406800F00C000828F9D1CA
:1016D0000CBD0000001002400020024030B5014661
:1016E000B1F1807F01D3012030BD21F07F40401E49
:1016F0004FF0E022506150170F22002807DA13073D
:101700001D0E094B00F00F04241F1D5503E01307A5
:101710001C0E064B1C5400BF00204FF0E0229061CD
:10172000072010610020DFE718ED00E000E400E092
:101730007047000010B5064800680649B0FBF1F498
:101740002046FFF7CBFF08B100BFFEE710BD000049
:1017500000000020A086010010B51348006840F08A
:1017600001001149086008464068104908400E49C8
:101770004860084600680E4908400B490860084662
:10178000006820F4802008600846406820F4FE00CD
:1017900048604FF41F008860FFF72BFF4FF0006098
:1017A0000449086010BD0000001002400000FFF86E
:1017B000FFFFF6FE08ED00E0F0B50C4615460022EE
:1017C0000021068C4FF6FE773E400684028B018C8A
:1017D0004FF60C7632407E1C06EA03162E43324347
:1017E000104EB0420ED0104EB0420BD0B0F1804F30
:1017F00008D00E4EB04205D00D4EB04202D00D4E74
:10180000B04206D14FF6FD76314044F00106314337
:1018100005E04FF6F576314044F00106314302838E
:101820000184F0BD002C0140003401400004004060
:1018300000080040000C0040F0B50C4615460022A0
:1018400000210026078C4FF6EF7C07EA0C0707847F
:10185000028B018C4FF6FF7707EA041640F6FF472C
:101860003A404FF6FF7707EA03373A434FF6FF77E0
:1018700007EA05273A43114FB8420ED0104FB8423D
:101880000BD0B0F1804F08D00E4FB84205D00E4FAC
:10189000B84202D00D4FB84206D14FF6DF7739403B
:1018A00046F01007394305E04FF65F77394044F0C2
:1018B0001007394302830184F0BD0000002C014071
:1018C000003401400004004000080040000C0040CB
:1018D000F0B50C461546002200210026078C4FF675
:1018E000FF6C07EA0C070784828B018C4FF6FF77A9
:1018F00007EA04264FF60C773A404FF6FF7707EADF
:1019000003172F433A43114FB8420ED0104FB8423D
:101910000BD0B0F1804F08D00E4FB84205D00E4F1B
:10192000B84202D00D4FB84206D14FF6FF573940AA
:1019300046F48077394305E04FF2FF57394044F4CD
:101940008077394382830184F0BD0000002C014080
:10195000003401400004004000080040000C00403A
:10196000F0B50C461546002200210026078C4EF6E5
:10197000FF7C07EA0C070784828B018C4FF6FF7708
:1019800007EA043640F6FF473A404FF6FF7707EA8A
:1019900005273A434FF6FF7707EA03373A43114FDB
:1019A000B8420ED0104FB8420BD0B0F1804F08D0E3
:1019B0000E4FB84205D00E4FB84202D00D4FB8427C
:1019C00006D14DF6FF77394046F48057394305E09C
:1019D00047F6FF57394044F48057394382830184E6
:1019E000F0BD0000002C0140003401400004004024
:1019F00000080040000C00404FF08040008A4FF08B
:101A00008040008A20F001004FF08041088270473A
:101A1000044800880348008820F00100014908803C
:101A2000704700001008004010B50121064800F082
:101A300042F840B105480068401C04490860012193
:101A4000014800F008F810BD001000405C000020C4
:101A5000CA4302827047CA430282704721B102889A
:101A600042F00102028004E002884FF6FE731A4041
:101A700002807047F0B50C4615461E460021002234
:101A800000230189028B038C4FF6F87739402143FC
:101A90004FF6FC473A4040F201173A434FF6DD77E4
:101AA0003B404FF6FF7707EA06172F433B43018180
:101AB00002830384F0BD30B50246002000230024D9
:101AC000158A05EA0103958905EA010413B10CB1F1
:101AD000012000E0002030BD70B505460C462448CA
:101AE00085420ED0234885420BD0B5F1804F08D0F7
:101AF0002148854205D02148854202D020488542B0
:101B000000D100E000BF208850B92389A2886188F5
:101B10002846FFF751FEE188284600F047F825E007
:101B2000208804280AD12389A28861882846FFF7E3
:101B300083FEE188284600F042F817E02088082854
:101B40000AD12389A28861882846FFF7C1FEE1886F
:101B5000284600F041F809E02389A28861882846D8
:101B6000FFF7FEFEE188284600F03FF870BD000058
:101B7000002C0140003401400004004000080040F7
:101B8000000C004000210180418001218180002162
:101B9000C180018170471AB183890B43838102E0C0
:101BA00083898B438381704781847047028B4FF612
:101BB000F3731A400283028B0A4302837047028B3D
:101BC0004FF2FF331A400283028B4FF6FF7303EA92
:101BD00001231A4302837047828B4FF6F3731A4036
:101BE0008283828B0A4382837047828B4FF2FF335A
:101BF0001A408283828B4FF6FF7303EA01231A4354
:101C000082837047002202881D4B98420ED01D4BE4
:101C100098420BD0B0F1804F08D01B4B984205D0B2
:101C20001A4B984202D01A4B984204D14FF68F7348
:101C30001A404B881A43174B984207D0164B9842CC
:101C400004D04FF6FF431A40CB881A4302808B889A
:101C500083850B8803850A4B98420BD0094B984229
:101C600008D00E4B984205D00D4B984202D00D4B38
:101C7000984201D10B7A03860123838270470000CA
:101C8000002C0140003401400004004000080040E6
:101C9000000C0040001000400014004000400140D3
:101CA00000440140004801404FF6FF71818000214F
:101CB0000180C18041800172704721B1828942F464
:101CC0000052828104E082894DF6FF731A408281BE
:101CD0007047000000B585B001210420FFF77EF9B0
:101CE00001218803FFF77AF94FF40070ADF8100076
:101CF00018208DF8130003208DF8120004A917484E
:101D0000FEF744FF4FF48060ADF8100004208DF81A
:101D1000130004A91148FEF739FF4FF4E130009099
:101D20000020ADF80400ADF80600ADF80800ADF8ED
:101D30000C000C20ADF80A006946094800F044F890
:101D4000FFF7C8F8012240F22551054800F017F8C6
:101D500001210348FFF7B1FF05B000BD00080140B5
:101D60000038014002460020B1F5007F00D100BFDD
:101D700013880B400BB1012000E000207047F0B544
:101D80000346002400260025002040F66A17B942C9
:101D900000D100BF1846C1F3421401F01F0601270D
:101DA00007FA06F5012C01D10C3004E0022C01D118
:101DB000103000E014301AB107682F43076002E0CA
:101DC0000768AF430760F0BD2DE9F04786B00546D0
:101DD0000E460024A24600BFA1460027B08900B1EC
:101DE00000BF2F462C8A4CF6FF700440F088044355
:101DF0002C82AC894EF6F3100440B0883189084338
:101E0000718908430443AC81AC8A4FF6FF4004401B
:101E1000B0890443AC8201A8FFF7F0F81F4887425D
:101E200002D1DDF810A001E0DDF80CA0A88900F4D3
:101E3000004040B10AEBCA0000EB0A1031684900CB
:101E4000B0FBF1F807E00AEBCA0000EB0A103168BA
:101E50008900B0FBF1F86420B8FBF0F00401200920
:101E6000642101FB1089A88900F4004040B13220B0
:101E700000EBC900B0FBF1F000F00700044308E0FC
:101E8000322000EB09106421B0FBF1F000F00F00EC
:101E900004432C8106B0BDE8F08700000038014003
:101EA000C1F308028280704700BFFEE70FB4054B04
:101EB00010B503A9044A029800F018F810BC5DF8A8
:101EC00014FB0000512300087000002002E008C845
:101ED000121F08C1002AFAD170477047002001E0A4
:101EE00001C1121F002AFBD1704700002DE9FF4FEE
:101EF0008DB00F460546002606E025280BD0DDE90B
:101F00000F1290476D1C761C28780028F5D111B06F
:101F10003046BDE8F08F0024A246A1460122EC49DC
:101F200000E0044315F8013F203B02FA03F00842A9
:101F3000F7D128782A2810D06FF02F022878A0F146
:101F40003001092914D80AEB8A0102EB410144F05F
:101F5000020400EB010A6D1CF0E701CF5FEA000A02
:101F600003D544F40054CAF1000A44F002046D1C85
:101F700028782E2817D115F8010F44F004042A28D8
:101F80000ED06FF02F022878A0F1300109290AD86D
:101F900009EB890102EB410100EB01096D1CF2E73D
:101FA00057F8049B6D1C28786C280FD006DC4C2851
:101FB00017D068280DD06A2814D104E0742810D0F6
:101FC0007A280FD10DE044F400140AE044F48014A0
:101FD00001E044F440146978814202D104F5801490
:101FE0006D1C6D1C2A786E2A1FD00CDC632A31D040
:101FF00004DC002A8BD0582A11D1A3E0642A68D0CF
:10200000692A0CD165E0732A2ED004DC6F2A73D0C4
:10201000702A04D19BE0752A6FD0782A6ED01046C2
:10202000DDE90F129047761C50E1C4F302500228FC
:1020300006D0032809D0042801CF09D0066045E165
:1020400001CFF117C0E9006140E101CF06803DE119
:1020500006703BE117F8040B8DF8000000208DF8A6
:102060000100EB46012003E057F804BB4FF0FF30BE
:1020700061074FF0000102D40DE008F1010188462C
:1020800049450FDA8045F8DB1BF808100029F4D128
:1020900008E008F1010188468142FADB1BF80810CC
:1020A0000029F6D1DDE90F23AAEB0800814621467D
:1020B00000F036F9304400EB080604E0DDE90F12C9
:1020C0001BF8010B9047B8F10108F7D221464846AA
:1020D000F7E00A21C4F302534FF0000B0891022BE2
:1020E00004D001CFC117032B09D00AE0FF1D27F050
:1020F0000707F7E8020108E032E01FE020E000B245
:10210000C117042B01D140B2C117031E71F10003A6
:1021100007DA4FF0000CD0EB0C006CEB01012D2323
:1021200002E0230504D52B238DF82430012303E09E
:10213000E30701D02023F7E7984658E00A2110E092
:1021400010210EE010204FF0000B08900CE0102141
:102150004FF0000B44F004044FF00809089103E02D
:1021600008214FF0000B0891C4F30253022B04D056
:1021700001CF0021032B06D006E0FF1D27F0070743
:10218000F7E8020103E080B2042B00D1C0B24FF0A7
:10219000000823072BD5702A07D0DDF820C08CF06B
:1021A000100C5CEA0B0C05D00EE040238DF82430B7
:1021B000012308E050EA010306D030238DF82430D3
:1021C0008DF8252002239846DDF820C08CF0080CFD
:1021D0005CEA0B0C0BD150EA010301D1630706D571
:1021E00030238DF824304FF00108A9F10109582A55
:1021F00004D038A20B9208AA0A920BE03AA2F9E79F
:102200005B46089AFDF7B0FF0B9B9B5C0A9A521E37
:102210000A92137050EA0102F2D10A98ADEB000065
:1022200000F1200B600702D524F4803401E04FF068
:102230000109D94502DDA9EB0B0000E0002000EB0D
:102240000B0141440890AAEB010AE00306D4DDE942
:102250000F232146504600F063F806444FF0000972
:1022600008E009A911F80900DDE90F12904709F10A
:102270000109761CC145F4DBE0030CD5DDE90F2331
:102280002146504600F04CF8064404E0DDE90F1208
:1022900030209047761C0899481E08900029F5DCEC
:1022A00008E00A980A990078491C0A91DDE90F12A2
:1022B0009047761CBBF10001ABF1010BF1DC21462C
:1022C0005046DDE90F2300F019F806446D1C1BE6AB
:1022D00009280100303132333435363738396162FC
:1022E00063646566000000003031323334353637C0
:1022F0003839414243444546000000002DE9F04191
:10230000044600251E461746880404D405E03946D5
:102310002020B0476D1C641EF9D52846BDE8F08129
:102320002DE9F041044600251E469046C80301D51C
:10233000302700E02027880404D505E041463846D0
:10234000B0476D1C641EF9D52846BDE8F081000039
:1023500070B504460D46E1B20548FFF7A1FD00BF88
:1023600080210348FFF7FEFC0028F9D0204670BD0D
:1023700000380140FEF70EF9FEF79AFAFEF76EFDFF
:10238000FFF7D8F9FFF7A6FCFEF728F8FEF7BEFB2B
:10239000FEF7C4F8FEF7D2FAFEF720FBFEF794FC36
:1023A000FEF75CFFFFF708F81649086044F6206066
:1023B000FEF7F2F9FFF71EF81349086020E0124813
:1023C0000068124988421BD10020FFF73BF8252204
:1023D00000210F48FEF7B0FE252200210D48FEF730
:1023E00083FE25220B490A48FEF7F0F80A490870D7
:1023F00008460078012803D101020848FEF753FC83
:10240000DDE7000050000020540000201740EF00DE
:10241000280000207400002058000020000801401F
:10242000402400080000002074000000CC1E0008BA
:10243000B42400087400002034040000DC1E0008EE
:1024400000A24A0400000000000000000102030492
:10245000060708090000000001020304010203044A
:102460000607080902040608E6849FE8B0A2E6828F
:10247000A8E98089E794A8E9878EE781AB73746D3A
:102480003332E5BC80E58F91E69DBF0D0A00000068
:10249000000000000000000000000000000000003C
:1024A0000000000000A000000000000000A00000EC
:0424B0000000000028
:0400000508000145A9
:00000001FF
